:020000040800F2
:10000000B804002001010008F71300088D12000851
:10001000F51300086D010008151700080000000026
:10002000000000000000000000000000FB130008BA
:100030006F01000800000000F9130008FD1300081C
:100040001B0100081B0100081B0100081B01000820
:100050001B0100081B01000871010008770100085E
:100060001B0100087D010008830100081B01000836
:100070001B0100081B0100081B0100081B010008F0
:100080001B0100081B0100081B0100081B010008E0
:100090001B0100081B0100081B0100088901000862
:1000A0001B0100081B0100081B0100081B010008C0
:1000B0001B0100081B010008511400081B01000867
:1000C0001B0100081B0100081B0100081B010008A0
:1000D0001B010008091700081B0100081B0100088C
:1000E0001B0100081B0100081B010008DFF80CD0F1
:1000F00000F02AF80048004755170008B80400200F
:100100000648804706480047FEE7FEE7FEE7FEE7B1
:10011000FEE7FEE7FEE7FEE7FEE7FEE74F14000816
:10012000ED000008D2B201E000F8012B491EFBD21D
:1001300070470022F6E710B513460A4604461946F2
:10014000FFF7F0FF204610BD064C074D06E0E068C3
:1001500040F0010394E8070098471034AC42F6D30E
:10016000FFF7C8FF4018000860180008FEE7704756
:10017000012000F0B3B8022000F0B0B8082000F071
:10018000ADB8102000F0AAB810B5202000F0A6F8F5
:10019000BDE81040402000F0A1B8000010B590F874
:1001A00021100024022903D00421816301243DE0B1
:1001B00001680A6822F00E020A6001680A6822F0EB
:1001C00001020A601A4A0168914201D1012121E02D
:1001D000174A1432914201D110211BE0144A2832EF
:1001E000914201D1891515E0114A3C32914201D169
:1001F00089140FE00E4A5032914202D14FF48031FF
:1002000008E00B4A6432914202D14FF4801101E0C0
:100210004FF08071064A083A5160012180F82110A0
:10022000002180F82010416B01B18847204610BDA5
:1002300008000240002201232749012816D0022885
:100240001BD0082823D0102828D0202830D04028C0
:1002500036D0B0F5006F08D1087870B30020087070
:100260004FF496700881488188817047487910B1B1
:100270000889401C05E08B707047887828B1088990
:10028000401E08818A704A7170474B7170478879A7
:1002900010B14889401C05E0CB707047C87828B180
:1002A0004889401E4881CA708A7170478B717047B7
:1002B000C87918B18889401C06E00BE00B717047C3
:1002C000087928B18889401E88810A71CA717047EF
:1002D000CB7170470120C2E700000020044910B52F
:1002E0000A68024202D00860FFF7A4FF10BD0000B8
:1002F000140401402DE9F84FDFF8B891002409F10A
:10030000040A0AF1040B23460F270BF1040EC9E07F
:100310000125A5402A40AA427DD1674ED1F804C0EC
:10032000ACEB0608B44532D014DCBCF1030F3AD074
:1003300009DCBCF1000F2AD0BCF1010F1CD0BCF1CC
:10034000020F31D11DE0BCF1110F17D0BCF1120F1B
:100350002AD119E0B8F5881F19D006DCB8F5803F1E
:1003600015D0B8F5801F1FD111E0B8F5001F0ED0D1
:10037000B8F5041F18D10AE0CB6815E0CB681B1D47
:1003800012E0CB6808330FE0CB680C330CE08B68CD
:100390002BB1012B4FF0080303D0456104E0042387
:1003A00002E0056100E00023FF2A01D8064601E0D3
:1003B00000F104064FEA840501D9A5F12005D6F81D
:1003C000008007FA05FC28EA0C0803FA05F548EA5C
:1003D0000508C6F800804D68ED0062D5374DAE695E
:1003E00046F00106AE61AD6924F0030605F0010593
:1003F0000095334D06EB050CDCF80850A607360FC8
:1004000007FA06F825EA0805DFF8B880404503D169
:100410004FF0000817E044E0DFF8AC80404502D11F
:100420004FF001080FE0DFF8A480404502D14FF003
:10043000020808E0DFF89880404502D14FF0030839
:1004400001E04FF0040808FA06F848EA0508CCF87D
:1004500008804D68D9F80060ED034D4601D516437C
:1004600000E096432E604D68DAF80060AD03554613
:1004700001D5164300E096432E604D68DBF800601E
:10048000ED025D4601D5164300E096432E604D68AF
:10049000DEF80060AD02754601D5164300E09643D4
:1004A0002E60641C0D682A46E5407FF431AFBDE83C
:1004B000F88F0000000401400000111000100240FD
:1004C0000000014000080140000C01400010014004
:1004D000001401408068084000D0012070470AB134
:1004E000016170470904FBE701488068704700001C
:1004F0001000002002488168027811448160704732
:1005000010000020074810B5016841F0100101609B
:10051000032000F0BFF8002000F006F800F024F8F7
:10052000002010BD0020024070B50D4D04464FF470
:100530007A712878B1FBF0F00A490968B1FBF0F054
:1005400000F036FB48B9102C07D200222146501E7D
:1005500000F080F800206C6070BD012070BD0000CC
:10056000100000201C0000200E4808B5816941F0F1
:1005700001018161816901F001010091C16941F0CE
:100580008051C161C06900F080500090052000F0EA
:1005900081F80548416821F0E06141F00071416057
:1005A00008BD000000100240000001402DE9F041AC
:1005B00016460F46040004D094F83900002518B1FF
:1005C00007E00120BDE8F08184F83850204600F0B3
:1005D000C1FD242084F839002068C16821F400514D
:1005E000C160204601F002F82068016921F49041C1
:1005F00001612068416921F02A0141612068016997
:1006000021F00F010161206801693943016120680F
:10061000C16821F40061C1602068C1683143C160D4
:100620002068C16841F40051C160E563202084F86E
:10063000390084F83A000020C4E7002809DB00F004
:100640001F02012191404009800000F1E020C0F824
:1006500000117047F0B40E4B1B680C46C3F3022325
:10066000C3F10705042D00D90425191D072901D25E
:10067000002300E0DB1E012606FA05F1491E214099
:1006800099409E40761E16403143F0BC01F043B8BD
:100690000CED00E0064900F0070208684FF6FF0382
:1006A000184040EA0220034A1043086070470000E7
:1006B0000CED00E00000FA052DE9F0470F460500BB
:1006C00061D0434E306800F00700B84209D230686C
:1006D00020F0070038433060306800F00700B8426F
:1006E00051D128683B4C810712D5400703D560687B
:1006F00040F4E06060602878000703D5606840F44B
:10070000605060606068A96820F0F0000843606095
:100710002878C00728D06868012810D021680228EE
:1007200010D0890700292EDA616821F00301014306
:100730006160FFF7D9FE804641F288390DE02168FB
:100740008903EFE78901EDE7FFF7CEFEA0EB080193
:10075000494502D90320BDE8F0876068696800F068
:100760000C00B0EB810FEFD1306800F00700B84209
:100770000BD9306820F0070038433060306800F053
:100780000700B84201D00120E5E72878400705D5E9
:100790006068E96820F4E06008436060287800073A
:1007A00006D56068296920F4605040EAC1006060A5
:1007B00000F038F86168084AC1F30311515CC84081
:1007C0000649086006480068FFF7AEFE0020C2E751
:1007D0000020024000100240281800081C000020E1
:1007E000140000200448054900684968044AC1F320
:1007F0000221515CC84070471C00002000100240DC
:10080000381800080448054900684968044AC1F3DB
:10081000C221515CC84070471C00002000100240FB
:100820003818000812A185B00FC98DE80F0014A078
:10083000144A006804905168134801F00C03042B1B
:1008400010D0082B0ED1C1F38343C9031DF8030058
:100850000AD5516804AAC1F34041515C0A4A504389
:10086000B0FBF1F005B0704708494843FAE70000D3
:1008700002030405060708090A0B0C0D0E0F1010E1
:10088000010200000010024000127A0000093D0041
:100890002DE9F84F040070D02078C04DC00749D032
:1008A0006868C0F38100012807D06868C0F3810040
:1008B000022809D16868C00306D52868800339D5A5
:1008C00060680028E7D035E06068B0F5803F0BD065
:1008D00010B1B0F5A02F11D0286820F48030286026
:1008E000286820F4802002E0286840F480302860E6
:1008F000606890B1FFF7F8FD06460AE0286840F40A
:1009000080202860F0E700BFFFF7EEFD801B642821
:1009100073D828688003F7D50CE0FFF7E5FD06469D
:1009200005E000BFFFF7E0FD801B6428F0D82868D1
:100930008003F7D420789A4E80074FF001094FF0DA
:10094000000839D5686810F00C0F07D06868C0F34C
:100950008100022809D16868C00306D4286880078E
:1009600014D52069012808D110E02069B0B1C6F87B
:100970000090FFF7B9FD074605E00AE1FFF7B4FD77
:10098000C01B0228C4D828688007F7D52868616989
:1009900020F0F80040EAC10028600DE0C6F80080B1
:1009A000FFF7A2FD074604E0FFF79EFDC01B0228EB
:1009B00023D828688007F7D4207800072CD57948F9
:1009C000A169D9B1C0F80090FFF78EFD074604E099
:1009D000FFF78AFDC01B02280FD8686A8007F7D589
:1009E00071484FF4FA510068B0FBF1F0009000BF7D
:1009F0000098411E0091FAD20EE080E0C0F800801D
:100A0000FFF772FD074604E0FFF76EFDC01B0228EA
:100A100075D8686A8007F7D42078400760D5E86900
:100A20000027C00008D4E86940F08050E861E86918
:100A3000012700F0805000905C480168C90513D47C
:100A40000168834641F480710160FFF74DFD8246E5
:100A500006E000BFFFF748FDA0EB0A0064284ED86F
:100A6000DBF80000C005F5D5E06801280AD008B120
:100A7000052813D0286A20F001002862286A20F097
:100A8000040002E0286A40F001002862E06841F2B8
:100A9000883B98B1FFF728FD82460BE0286A40F0BA
:100AA00004002862EEE700BFFFF71EFDA0EB0A017D
:100AB00059455AD8286A8007F6D50CE0FFF714FD8F
:100AC000824605E0FFF710FDA0EB0A0159454CD81E
:100AD000286A8007F6D41FB1E86920F08050E861E9
:100AE000E06988B36968C1F38101022944D0022812
:100AF000C6F8608004D0FFF7F7FC044638E034E025
:100B0000FFF7F2FC074604E0FFF7EEFCC01B0228EB
:100B10002BD828688001F7D4206AB0F5803F05D132
:100B20006868A16820F4003008436860D4E90801CF
:100B30000843696821F4741108436860C6F860903E
:100B4000FFF7D2FC044606E025E000BFFFF7CCFC2F
:100B5000001B022809D828688001F7D51BE000BFD8
:100B6000FFF7C2FC001B022802D90320BDE8F88F62
:100B700028688001F4D40EE00128F7D06868226A62
:100B800000F48031914204D1616A00F4701088420F
:100B900001D00120EAE70020E8E700000010024051
:100BA00000004242800442421C00002000700040CD
:100BB00010B5401EB0F1807F01D3012010BD4FF071
:100BC000E02460610F21601700F0A5FD0020A06106
:100BD00007202061002010BD7047704770B590F865
:100BE0003C20012A26D0012480F83C40022280F8D3
:100BF0003D2003685A689D6822F070060A683243F7
:100C00005A600D4B02689A4208D0B2F1804F05D06D
:100C10000A4B9A4202D00A4B9A4204D1496825F005
:100C200080031943916080F83D40002180F83C101A
:100C3000084670BD022070BD002C01400004004039
:100C40000008004010B5040003D094F83D0010B136
:100C500007E0012010BD002084F83C00204600F091
:100C60001FF8022084F83D00211D206800F0F6FBEB
:100C7000012084F8460084F83E0084F83F0084F8A0
:100C8000400084F8410084F8420084F8430084F86E
:100C9000440084F8450084F83D00002010BD0000A9
:100CA00008B500680B49884212D10B48C16941F070
:100CB0000401C161C069002200F00400009002211B
:100CC0001E20FFF7C7FCBDE808401E20FFF7B5BC9B
:100CD00008BD0000000800400010024090F83D10E0
:100CE000012901D001207047022180F83D100168E0
:100CF000CA6842F00102CA6000680B49884208D005
:100D0000B0F1804F05D00949884202D00849884295
:100D100004D1816801F00701062903D0016841F080
:100D20000101016000207047002C014000040040D8
:100D30000008004070B5044690F83C00012817D028
:100D4000012584F83C50022084F83D002068826828
:100D500022F0770222F47F4282600868502830D067
:100D60000DDC20284DD005DC98B310283BD148E09D
:100D7000022070BD302844D0402834D139E06028AA
:100D800028D0702806D0B0F5805F2CD0B0F5005F79
:100D900029D10AE0CB68D1E90121206800F094FB59
:100DA0002068816841F0770109E0CB68D1E9012131
:100DB000206800F089FB2068816841F480418160EF
:100DC00011E0CA684968206800F090FB5021206853
:100DD00007E016E0CA684968206800F098FB6021C7
:100DE000206800F07BFB84F83D50002084F83C0034
:100DF00070BDCA684968206800F078FB402120680F
:100E0000EFE7226801461046EBE7704770B50446ED
:100E1000006801694FF00005C943890715D4C1680E
:100E2000C943890711D4E91E016101202077206898
:100E300080698007204602D0FFF7E7FF04E000F05A
:100E400098F8204600F096F8257720680169C94394
:100E5000490717D4C168C943490713D46FF0040187
:100E60000161022020772068806910F4407F2046CD
:100E700002D0FFF7CAFF04E000F07BF8204600F044
:100E800079F8257720680169C943090716D4C16834
:100E9000C943090712D46FF00801016104202077CB
:100EA0002068C0698007204602D0FFF7AEFF04E04B
:100EB00000F05FF8204600F05DF8257720680169B2
:100EC000C943C90617D4C168C943C90613D46FF012
:100ED00010010161082020772068C06910F4407F6C
:100EE000204602D0FFF791FF04E000F042F82046D0
:100EF00000F040F8257720680169C943C90708D187
:100F0000C168C943C90704D1891E0161204600F0A8
:100F100033F820680169C943090609D4C168C94387
:100F2000090605D46FF0800101612046FFF754FEE9
:100F300020680169C943490609D4C168C943490603
:100F400005D46FF040010161204600F053F820689D
:100F50000169C94389060BD4C168C943890607D40E
:100F60006FF0200101612046BDE87040FFF735BEFB
:100F700070BD7047704700001B4910B5884231D1E1
:100F80001A4C207810B31848002188300172F521DE
:100F9000017021890A0A4270817061890A0AC2704F
:100FA0000171A1890A0A427181710121027A435CAF
:100FB000491C1A44C9B202720829F7D30A496423AA
:100FC00088310922A1F1400000F006F9607838B1BB
:100FD00000226270BDE8104004210548FFF77FBA87
:100FE0000122F6E710BD00002000002000000020D4
:100FF000000C01407047704770B5026804461068E5
:10100000D168536910F00F0F53D003F0010501F4BC
:1010100090762E435FD0C20705D0CA0503D5E26B98
:1010200042F00102E263420705D5DA0703D0E26B22
:1010300042F00202E263820705D5DA0703D0E26BD1
:1010400042F00402E263020707D501F020022A43BE
:1010500003D0E26B42F00802E263E26B002A34D074
:10106000800604D5880602D5204600F078FA20686C
:101070004069E16BC0F3801001F008010143204694
:1010800024D000F05EFA2068416949061AD541690A
:1010900021F040014161606BA0B12D494163606B5B
:1010A000FFF77CF8002810D0606B416BBDE8704002
:1010B000084783060FD58B060DD52046BDE8704046
:1010C00000F04DBA2046FFF796FF70BDFFF793FF83
:1010D0000020E06370BD03062BD50B0629D594F8DC
:1010E00039002128F6D1A068B0F5805F01D12069D0
:1010F000B0B1206A411C2162216800784860E08C10
:10110000401E0004000CE084E4D12068C16821F096
:101110008001C1602068C16841F04001C16070BDBC
:10112000206A0088C0F308005060206A801C20629A
:10113000E5E74006F3D54806F1D5D168204621F011
:101140004001D160202184F8391000F09EF870BD74
:101150003315000830B585B0002400940194029442
:1011600003940068184988422CD11848816941F4D9
:1011700080418161816901F480410491816941F07C
:10118000040181618069124D00F0040004904FF465
:1011900000700090022001900320039069462846C9
:1011A000FFF7A8F82815CDE90004694628460294FF
:1011B000FFF7A0F8002201212520FFF74BFA252098
:1011C000FFF73BFA05B030BD003801400010024087
:1011D00000080140704700002DE9F843044690F8EC
:1011E00039001F4616460D4620284CD1C5B1BEB168
:1011F00094F83800012846D0012084F838004FF0D8
:101200000008C4F83C80212084F83900FFF76CF90D
:10121000A6848146E684A068B0F5805F03D004E030
:101220000120BDE8F883206928B12E465FF0000553
:1012300084F838800EE00026FAE78021204600F08E
:1012400031FAA0B9AEB116F8010B21684860E08C04
:10125000401EE084E08C4B464FF0000200970028CF
:10126000EBD14FF04001204600F01CFA30B10320D2
:10127000D7E735F8020BC0F30800E6E7202084F832
:1012800039000020CDE70220CBE77047FEE70000E1
:1012900070B586B03C4800250395816941F0200176
:1012A0008161816901F020010491816941F00401AB
:1012B0008161816901F004010491816941F00801B3
:1012C0008161816901F008010491816941F0100197
:1012D000816180692D4E00F0100004907820CDE9E6
:1012E00000060124694602942948FFF703F840F6F6
:1012F0000300CDE90006274E694602943046FEF70A
:10130000F9FFA002CDE900050220029069463046AF
:10131000FEF7F0FF0420CDE9000469463046029450
:10132000FEF7E8FF012211460620FFF793F9062099
:10133000FFF783F9012211460720FFF78BF90720F9
:10134000FFF77BF9012211460920FFF783F90920F5
:10135000FFF773F9012211460A20FFF77BF90A20F3
:10136000FFF76BF9012211461720FFF773F91720D9
:10137000FFF763F9002201212820FFF76BF92820ED
:10138000FFF75BF906B070BD0010024000001110BD
:1013900000080140000C014010B586B0002414483C
:1013A00000940194029403940494104905940160FC
:1013B0004721C0E9011444F61F61C0E903148021EC
:1013C0008161FFF73FFC4FF4805000906946084868
:1013D000FFF7B0FC049404A905480594FFF7FEFB51
:1013E0000348FFF77BFC06B010BD0000000800407A
:1013F00020000020FEE7704770477047FFF77AB87B
:1014000030B58FB028216846FEF793FE14210AA854
:10141000FEF78FFE01210804CDE90010002402949C
:1014200002250491CDE907504FF4E0100990684679
:10143000FFF72EFA0F20CDE90A056802CDE90C402E
:1014400002210AA80E94FFF737F90FB030BD70479C
:101450000148FFF7DBBC000020000020F0B5026867
:10146000164B174C174D4FF08047984205D0B842A5
:1014700003D0A04201D0A84203D122F070064A68EE
:101480003243984205D0B84203D0A04201D0A842CE
:1014900003D122F44074CA6822434C6922F08002CE
:1014A000224302608A68C2620A688262984201D15D
:1014B0000969016301214161F0BD0000002C014078
:1014C000000400400008004010B5846842EA03228E
:1014D00024F47F440A432243826010BD826822F0D4
:1014E00070020A4342F007018160704710B5036A39
:1014F000046A24F001040462846924F0F00444EADC
:10150000021423F00A020A438461026210BD10B57E
:10151000036A23F0100303628369046A23F47043AF
:1015200043EA023224F0A00343EA0111826101621E
:1015300010BD10B5406A0021C185C184FFF75BFD75
:1015400010BD0168CA6822F49072CA6001684A69D5
:1015500022F001024A61202180F83A10704710B54C
:1015600090F83A10222901D0022010BD82684FF471
:1015700080539A4201D1016921B1816A9A421BD0FC
:101580004AB10AE00268816A5268C2F308020A801E
:10159000816A891C08E0026972B10268526802F02F
:1015A0007F020A70816A491C8162C18D491E09044B
:1015B000090CC18503D016E002685268F1E70168A2
:1015C000CA6822F02002CA600168CA6822F48072E8
:1015D000CA6001684A6922F001024A61202180F84C
:1015E0003A10FFF7F7FD002010BD000070B504466B
:1015F00000680169E26821F44051114301612169E9
:10160000A0680843616908432168CA6841F20C6315
:101610009A430243CA6020684169A26921F440717B
:10162000114341611E492068884202D1FFF7EAF860
:1016300001E0FFF7D7F800EBC00101EB0012606892
:1016400064218000B2FBF0F3B3FBF1F36FF01806F6
:101650007343B2FBF0F5B2FBF0F605EB83053223E2
:1016600003EB0515B5FBF1F5B6FBF1F605F0F0055A
:1016700005EB0615B2FBF0F6B2FBF0F0B0FBF1F0B3
:101680006FF01802504306EB800003EB0010B0FB34
:10169000F1F0216800F00F002844886070BD000060
:1016A000003801402DE9F041984617460E460446A1
:1016B000069D1DE0681C1BD02DB1FEF715FFA0EBA9
:1016C0000800A84214D92068C16821F4D071C16013
:1016D0002068416921F001014161202084F839002E
:1016E00084F83A00002084F838000320BDE8F08137
:1016F0002068006836EA000004D00020B842D9D043
:101700000020F3E70120F9E70148FFF775BC00006E
:1017100068000020FEE70907090E002804DB00F13D
:10172000E02080F80014704700F00F0000F1E02086
:1017300080F8141D704702E008C8121F08C1002A73
:10174000FAD170477047002001E001C1121F002A42
:10175000FBD17047FEF7D6FEFFF752FEFFF798FD6C
:10176000FFF71AFE2C482B49002401604FF4E131A9
:10177000C0E901140C21C460C0E90441846122461F
:101780002146C461FEF712FFDFF88C90234F244EF0
:10179000244D4FF001084FF4806A09F1400900BF61
:1017A00085F8008051463846FEF794FE58B12878F7
:1017B00010B11F2189F8071001213846FEF78AFE73
:1017C000012802D009E01121F4E702213846FEF792
:1017D00081FE012801D1AC706C7108213046FEF702
:1017E00079FE012807D110213046FEF773FE01284B
:1017F00001D1EC70AC7120213046FEF76BFE012860
:10180000CED140213046FEF765FE0128C8D12C71AB
:10181000EC71C5E70038014068000020000C014071
:10182000000801400000002000000000000000004F
:101830000102030406070809000000000102030476
:101840006018000800000020200000003617000883
:1018500080180008200000209804000046170008A7
:1018600000000000000000002C012C012C010000F1
:101870000100000010000000000000000024F4003F
:04000005080000ED02
:00000001FF
