:020000040800F2
:10000000880700209D0100084B240008F521000806
:1000100049240008310600082929000800000000D2
:100020000000000000000000000000004F24000855
:1000300033060008000000004D2400085124000889
:10004000B7010008B7010008B7010008B7010008B0
:10005000B7010008B7010008B7010008B7010008A0
:10006000B7010008B701000835060008B70100080D
:10007000B7010008B7010008B7010008B701000880
:10008000B7010008B7010008B7010008B701000870
:10009000B7010008B7010008B7010008B701000860
:1000A000B7010008B7010008B7010008B701000850
:1000B000F9240008B7010008B7010008B7010008DB
:1000C000B7010008B7010008B7010008B701000830
:1000D000B7010008F92800080529000811290008BF
:1000E000B7010008B7010008B7010008B701000810
:1000F000B7010008B7010008B7010008B701000800
:10010000B7010008B7010008B7010008B7010008EF
:10011000B701000839260008B7010008B701000838
:10012000B7010008B7010008B7010008B7010008CF
:10013000B7010008B7010008B7010008B7010008BF
:10014000B7010008B7010008B7010008B7010008AF
:10015000B7010008B7010008B70100081D29000811
:10016000B7010008B7010008B7010008B70100088F
:10017000B7010008B7010008B7010008000000003F
:10018000B7010008B7010008DFF80CD000F0AAF9A9
:1001900000480047012E00088807002006488047D5
:1001A00006480047FEE7FEE7FEE7FEE7FEE7FEE75C
:1001B000FEE7FEE7FEE7FEE7DD2400088901000810
:1001C0002DE9F05F0546002092469B46884606468C
:1001D000814640241BE0284641464746224600F01F
:1001E000DCF853465A46C01A914110D311461846BE
:1001F000224600F0C3F82D1A67EB01084F4622464D
:100200000120002100F0BAF817EB00094E41201E32
:10021000A4F10104DFDC484631462A464346BDE8E6
:10022000F09FD2B201E000F8012B491EFBD27047CB
:100230000022F6E710B513460A4604461946FFF7B2
:10024000F0FF204610BD2DE9FE4F81EA030404F0C3
:10025000004421F0004100944FF0000B23F00043D4
:1002600050EA01045ED052EA03045BD0C3F30A549F
:10027000C1F30A552C44A4F2F3340194A0FB0254B8
:10028000C1F3130141F48011C3F3130343F480134A
:1002900001FB024400FB034E840A970A44EA81549E
:1002A00047EA8357A4FB076802958D0A05FB07857B
:1002B0004FEA932C04FB0C542705029D4FEA065885
:1002C00047EA1637B5EB08056EEB070C870E920E62
:1002D00047EA811742EA8312A7FB0201B6EB0B0142
:1002E00064EB00042B0D43EA0C335E1844EB1C5006
:1002F000DA465146E7FB0201C5F313044FEA0B331C
:1003000043EA14534FEA0432019C43EA0603A4F182
:100310000C040294009CCDE900B400F094F803B002
:10032000BDE8F08F00200146F9E70EB540F23341F9
:1003300002910021CDE900110A460B4600F083F836
:1003400003B000BD01F0004330B421F0004150EA99
:10035000010206D00A0DA2F56072C1F31301002A52
:1003600002DC30BC00207047440F44EAC104C100E5
:10037000E01830BC00EBC25000F01FB8202A04DBAC
:10038000203A00FA02F1002070479140C2F12003A8
:1003900020FA03F3194390407047202A04DB203AE7
:1003A00021FA02F00021704721FA02F3D040C2F195
:1003B000200291400843194670470029A8BF7047A2
:1003C000401C490008BF20F00100704710B4B0FA8B
:1003D00080FC00FA0CF050EA010404BF10BC704726
:1003E00049B1CCF1200421FA04F411FA0CF118BF40
:1003F000012121430843A3EB0C01CB1D4FEA00610F
:100400004FEA102042BF002010BC704700EBC350E1
:1004100010440029A4BF10BC7047401C490008BF0D
:1004200020F0010010BC704710B5141E73F10004D9
:1004300008DA401C41F1000192185B411A4301D1D6
:1004400020F0010010BD2DE9F04D92469B4611B100
:10045000B1FA81F202E0B0FA80F220329046FFF762
:100460008DFF04460F4640EA0A0041EA0B0153465D
:100470005A46084313D0114653EA010019D0C8F177
:1004800040025046FFF789FF05460E465046594642
:100490004246FFF773FF084305D0012004E02046E1
:1004A0003946BDE8F08D0020054346EAE0762C434E
:1004B00037430A986305E40AA0EB08000022FD0A0E
:1004C00044EA47540A3002D500200146E9E7010515
:1004D00010196941DDE9084500196941BDE8F04D91
:1004E000A2E70000064C074D06E0E06840F001037B
:1004F00094E8070098471034AC42F6D3FFF748FE63
:10050000B4380008D4380008464910B54A6822F4C7
:1005100040324A604A6843681A434A6001684A6840
:1005200022F480724A6001684A68036942EA032241
:100530004A6001684A6822F040724A6001684A686D
:1005400083681A434A6001688A6822F400628A60FC
:1005500001688A68C3681A438A60816A6FF07062B2
:10056000D14201688A6822F070628A6001688A68F4
:100570000CD0836A1A438A6001688A6822F040526C
:100580008A6001688A68C36A1A4301E022F0405217
:100590008A6001688A6822F002028A6001688A68BB
:1005A000037E42EA43028A6090F820100029016825
:1005B0004A680FD042F400624A6001684A6822F437
:1005C00060424A6001684A68174C436A04EB43334F
:1005D0001A4301E022F400624A600168CA6A22F408
:1005E0007002CA620168CA6A838B104C04EB035321
:1005F0001A43CA6201688A6822F400728A6001683C
:100600008A6890F8303042EA43228A6001688A683A
:1006100022F480628A6001688A68406942EA802028
:10062000886010BD0023014000E0FFFF0000F0FFE4
:10063000FEE77047102000F00DBA000078B50024E6
:10064000009490F83C20012A19D0012280F83C2027
:100650000A6807230568092A13D9EE680A3A02EBEB
:10066000420293409E43EE600B788A680A3B03EB9C
:1006700043039A400368DD682A43DA6010E00220F1
:1006800078BD2E6902EB420293409E432E610B78A7
:100690008A6803EB43039A4003681D692A431A6181
:1006A0004A681F23072A13D205686E6B521E02EB9D
:1006B000820293409E436E630B790A885B1E92B25E
:1006C00003EB83039A4003685D6B2A435A6327E078
:1006D00005680D2A12D22E6BD21F02EB82029340C4
:1006E0009E432E630B790A88DB1F92B203EB8303D0
:1006F0009A4003681D6B2A431A6311E0EE6A0D3AB3
:1007000002EB820293409E43EE620B790A880D3B16
:1007100092B203EB83039A400368DD6A2A43DA62EC
:10072000164B0568144A9D4206D10D68122D03D15F
:10073000556845F48005556005689D4218D10B68E1
:10074000102B01D0112B13D1536843F400035360D5
:10075000096810290CD10A490A4A0968B1FBF2F16B
:1007600001EB8101490000E0491E00910029FBD105
:1007700080F83C40002078BD00230140002001406B
:10078000C000002040420F00006C70470068C06C41
:10079000704770B504004FF0000503D0206C0026B0
:1007A00010B107E0012070BD204600F01DF866641E
:1007B00084F83C60206CC00610D4206C20F4885073
:1007C00040F0020020642046FFF79EFE6664206C25
:1007D00020F0020040F00100206400E0012584F8D0
:1007E0003C60284670BD00002DE9F04387B0074605
:1007F00014216846FFF71CFD224D21493868002668
:10080000204C143DDFF880904FF00308884217D148
:10081000206840F480702060206800F480700590AB
:10082000286840F0010028602868694600F001004F
:1008300005902020CDE900080296484600F016F900
:1008400012493868884217D1206840F4007020604F
:10085000206800F400700590286840F001002860CE
:100860002868694600F0010005908020CDE9000865
:100870000296484600F0FAF807B0BDE8F0830000A1
:1008800000200140443802400000024000210140A5
:100890002DE9F041044600680D4681684FF00007DD
:1008A00049050BD58068C00508D5206C40F02000B4
:1008B000206484F83C700120BDE8F08100F0B8F9B4
:1008C00006460FE0681C0DD025B100F0B1F9801B81
:1008D000A84207D9206C40F00400206484F83C70E2
:1008E0000320E9E7206800688007EBD521686FF0F6
:1008F00012000860206C40F4007020642068816859
:1009000011F0405F13D1217E89B9C16A11F4700FD3
:1009100002D0806840050AD4206C20F480702064E6
:10092000206CC00403D4206C40F00100206400203F
:10093000C2E7000018B50021009190F83C20012A80
:1009400007D0012280F83C2002689368DB0702D0C0
:1009500011E0022018BD936843F0010393602A4A16
:100960002A4B1268B2FBF3F202EB420200E0521E85
:100970000092002AFBD102689368DB0741D0036C28
:1009800040F20164A34343F48073036453685B053E
:1009900005D5036C23F4005343F480530364036CC4
:1009A000DB0404D5436C23F00603436400E0416498
:1009B00080F83C1016496FF0220313604968006804
:1009C000CA06144906D088421BD1816811F0405FE5
:1009D00013D016E08842F8D00F4A904203D1D1F8E4
:1009E0000423D206F1D00D4A90420AD1D1F8041363
:1009F00001F01F011029E8D303E0816841F0804134
:100A00008160002018BD0000C000002040420F009F
:100A1000002301400020014000210140002201404C
:100A200090F83510022903D08021416501207047DC
:100A3000052180F835100068016821F0010101608E
:100A400000207047102802D101490120C874704766
:100A5000ED000020044910B50A68024202D0086087
:100A6000FFF7F0FF10BD0000143C01402DE9F84FE6
:100A700000224FF0010803254FF00F0E0B6808FA13
:100A800002F42340A3426ED14E68012E05D0022EFF
:100A900003D0112E01D0122E12D186684FEA420CDB
:100AA00005FA0CF7BE43CF6807FA0CF737438760A7
:100AB0004668A6430C79C4F3001494403443446060
:100AC000C668570005FA07FC8C6826EA0C06BC408D
:100AD0003443C4604C68022C01D0122C13D1D408CA
:100AE00000EB8404A346D4F8209054074FEAD46A5C
:100AF0000EFA0AF629EA06090E6906FA0AF646EA25
:100B00000906CBF8206006680C7926EA0C0604F08A
:100B10000304BC40344304604C68E40065D5364CA3
:100B2000266846F480462660246822F0030604F412
:100B300080440094314C3444A446D4F808489607C5
:100B4000370F0EFA07F6B4432D4EB04201D10026FE
:100B500024E02C4EB04201D101261FE02A4EB042C3
:100B600002D102261AE040E0284EB04201D103260D
:100B700014E0274EB04201D104260FE0254EB042CA
:100B800001D105260AE0244EB04201D1062605E037
:100B9000224EB04201D1072600E00826BE4026437F
:100BA000CCF808681E4E34684F689C43FF0300D59C
:100BB0001C4334601A4C241D26684F689E43BF03B3
:100BC00000D51E432660164E083634684F689C4395
:100BD000FF0200D51C433460114E0C3634684F6858
:100BE0009C43BF0200D51C433460521C102AFFF402
:100BF00045AFBDE8F88F00004438024000300140A6
:100C0000000002400004024000080240000C0240C4
:100C1000001002400014024000180240001C024074
:100C2000003C01400AB1816170470904FBE7000004
:100C30000148806870470000B400002070B50400CF
:100C400011D021684CF6CC400860216845F255501F
:100C50000860D4E9000141602168A0688860FFF75E
:100C6000E7FF054609E0012070BD00BFFFF7E0FF88
:100C7000401B302801D9032070BD2068C0680028BF
:100C8000F4D121684AF6AA200860002070BD000057
:100C9000024881680278114481607047B4000020E6
:100CA0000B4810B5016841F400710160016841F41E
:100CB00080610160016841F480710160032000F0EF
:100CC000B7F8002000F006F800F024F8002010BD6E
:100CD000003C024070B50D4D04464FF47A712878FF
:100CE000B1FBF0F00A490968B1FBF0F000F04AFBF3
:100CF00048B9102C07D200222146501E00F078F887
:100D000000206C6070BD012070BD0000B4000020A8
:100D1000C00000200B4882B0016841F480410160AE
:100D2000006800F4804000900648001F016841F010
:100D300080510160006800F080500090052002B0F2
:100D400000F076B8443802402DE9F04116460F46CF
:100D5000040004D094F83900002518B107E0012000
:100D6000BDE8F08184F83850204600F075FE24205C
:100D700084F839002068C16821F40051C160204620
:100D800001F0C2FC2068016921F4904101612068F2
:100D9000416921F02A0141612068016921F00F01B8
:100DA000016120680169394301612068C16821F44B
:100DB0000061C1602068C1683143C1602068C168BA
:100DC00041F40051C160E563202084F8390084F8C3
:100DD0003A000020C4E7002809DB00F01F020121CF
:100DE00091404009800000F1E020C0F800117047F8
:100DF000F0B40E4B1B680C46C3F30223C3F1070586
:100E0000042D00D90425191D072901D2002300E073
:100E1000DB1E012606FA05F1491E214099409E403D
:100E2000761E16403143F0BC01F07FBD0CED00E0B2
:100E3000064900F0070208684FF6FF03184040EA31
:100E40000220034A10430860704700000CED00E0E8
:100E50000000FA052DE9F0470E46050065D0DFF8E1
:100E60001481D8F80000F7B200F00F00B04207D2AA
:100E700088F80070D8F8000000F00F00B04254D19C
:100E800028683D4C810712D5400703D5206840F4FF
:100E9000E05020602878000703D5206840F46040C7
:100EA00020602068A96820F0F000084320602878BE
:100EB000C0072DD0304968680839012812D00228AF
:100EC00013D0032811D00968890700292DDA216879
:100ED00021F0030101432160FFF7AAFE814641F2A0
:100EE000883A0EE009688903EFE709688901ECE7B1
:100EF000FFF79EFEA0EB0901514502D90320BDE892
:100F0000F0872068696800F00C00B0EB810FEFD12A
:100F1000D8F80010404601F00F01B14207D9077020
:100F2000006800F00F00B04201D00120E7E7287808
:100F3000400705D52068E96820F4E05008432060A8
:100F40002878000706D52068296920F4604040EA27
:100F5000C100206000F038F82168084AC1F303118D
:100F6000515CC8400649086006480068FFF7B2FEB9
:100F70000020C4E7003C0240083802409C380008CA
:100F8000C0000020B8000020044805490068096836
:100F9000044AC1F38221515CC8407047C000002060
:100FA00008380240AC380008044805490068096860
:100FB000044AC1F34231515CC8407047C000002070
:100FC00008380240AC380008154810B5006810F029
:100FD0000C02144813D04110042A0FD0082A0ED155
:100FE0000F4C241F2268236802F03F025B0207D5E2
:100FF0002068C0F38810A0FB010106E0084610BD80
:101000002168C1F38811A1FB00010023FFF7D8F884
:101010002168C1F30141491C4900B0FBF1F010BD4A
:10102000083802400024F4002DE9F84F040076D07F
:101030002078DFF838A3CE4DC00749D0DAF8001089
:101040005046C1F38101012908D00068C0F3810036
:1010500002280AD1281D0068400206D528688003AE
:1010600036D560680028E2D032E06068B0F5803F95
:1010700010D0B0F5A02F286810D020F48030286060
:10108000286820F4802028606068A0B1FFF7D0FDB8
:1010900006460CE0286840F48030F4E740F48020F5
:1010A0002860F7E7FFF7C4FD801B642873D8286821
:1010B0008003F7D50CE0FFF7BBFD064605E000BF57
:1010C000FFF7B6FD801B6428F0D828688003F7D4AA
:1010D0002078DFF8A08280074FF000093ED5DAF8CB
:1010E0000010504611F00C0F09D00068C0F38100C9
:1010F00002280BD19D48001F0068400206D42868D2
:10110000800715D5E068012809D111E0E068B8B181
:101110000120C8F80000FFF78BFD064605E020E13E
:10112000FFF786FD801B0228C0D828688007F7D506
:101130002868216920F0F80040EAC10028600DE02D
:10114000C8F80090FFF774FD064604E0FFF770FD55
:10115000801B02281FD828688007F7D42078000752
:1011600022D5824E844861696C3671B101210160DB
:10117000FFF75EFD074604E0FFF75AFDC01B02289B
:1011800009D830688007F7D50EE0C0F80090FFF767
:101190004FFD074605E082E0FFF74AFDC01B02282D
:1011A0007DD830688007F7D42078400768D5DFF80D
:1011B000BCB100270BF1380BDBF80000C0000BD4EA
:1011C000DBF8001041F08051CBF80010DBF8000094
:1011D000012700F080500090684E3068C00510D4A0
:1011E000306840F480703060FFF722FD009005E029
:1011F000FFF71EFD0099401A022850D83068C0053C
:10120000F6D55A4EA068683601280FD005283068F8
:1012100010D020F001003060306820F00400306011
:10122000A068B8B1FFF704FD00900FE0306840F00F
:101230000100F4E740F004003060F7E7FFF7F8FC46
:101240000099411A41F28830814266D8306880079F
:10125000F4D50EE0FFF7ECFC009007E0FFF7E8FCA8
:101260000099411A41F28830814256D8306880078F
:10127000F4D42FB1DBF8001021F08051CBF800102E
:10128000A069D0B3DAF800205146C2F38102022AE5
:101290004AD00228484607D0C8F8600000E03CE089
:1012A000FFF7C6FC04463BE04746C8F86000FFF77E
:1012B000BFFC064605E000BFFFF7BAFC801B022812
:1012C0002BD828688001F7D4D4E907010843A16A24
:1012D0002B4A490802EB0141626A41EA8211084344
:1012E00094F82C1040EA01612048001F01600120A1
:1012F0003866FFF79DFC044605E034E0FFF798FCF4
:10130000001B022809D828688001F7D52BE000BF10
:10131000FFF78EFC001B022802D90320BDE8F88FDE
:1013200028688001F4D41EE00128F7D00868E2693B
:1013300000F48001914214D1226A00F03F019142F1
:101340000FD147F6C071626A0140914209D1A26A89
:1013500000F44031914204D1E16A00F070608842AB
:1013600001D00120DAE70020D8E700000838024069
:101370000038024000004742800E474200700040A3
:101380000000FFFF10B5401EB0F1807F01D30120A7
:1013900010BD4FF0E02460610F21601701F0C5FA25
:1013A0000020A06107202061002010BD7047704719
:1013B00070B590F83C20012A32D0012480F83C40DE
:1013C000022280F83D2003685A689D6822F070066A
:1013D0000A6832435A60134B02689A4214D0B2F141
:1013E000804F11D0104B9A420ED0104B9A420BD026
:1013F0000F4B9A4208D00F4B9A4205D00E4B9A429F
:1014000002D00E4B9A4204D1496825F0800319435B
:10141000916080F83D40002180F83C10084670BD86
:10142000022070BD000001400004004000080040A0
:10143000000C004000040140004001400018004042
:1014400010B5040003D094F83D0010B107E001206E
:1014500010BD002084F83C00204600F00DF802206A
:1014600084F83D00211D206801F04CF8012084F82B
:101470003D00002010BD000008B5016817488142FA
:1014800008D11748016841F001010160006800F0CF
:1014900001000EE01248001FB1F1804F0BD0114A3D
:1014A000914207D1016841F004010160006800F039
:1014B0000400009008BD016841F00101016000686E
:1014C000032200F00100009002211C20FFF790FC95
:1014D000BDE808401C20FFF77EBC00000000014072
:1014E00044380240000800400168CA6842F0010226
:1014F000CA600068816801F00701062903D001680D
:1015000041F0010101600020704770B5044690F879
:101510003C00012817D0012584F83C50022084F8B3
:101520003D002068826822F0770222F47F428260C8
:101530000868502830D00DDC20284DD005DC98B349
:1015400010283BD148E0022070BD302844D040280C
:1015500034D139E0602828D0702806D0B0F5805FFB
:101560002CD0B0F5005F29D10AE0CB68D1E9012188
:10157000206801F02BF82068816841F0770109E0CC
:10158000CB68D1E90121206801F020F8206881684A
:1015900041F48041816011E0CA684968206801F027
:1015A00027F85021206807E016E0CA6849682068DB
:1015B00001F02FF86021206801F012F884F83D5006
:1015C000002084F83C0070BDCA684968206801F0BA
:1015D0000FF840212068EFE7226801461046EBE74C
:1015E000704770B50446006801694FF00005C943B3
:1015F000890715D4C168C943890711D4E91E01615F
:1016000001202077206880698007204602D0FFF7FC
:10161000E7FF04E000F098F8204600F096F8257700
:1016200020680169C943490717D4C168C9434907FC
:1016300013D46FF0040101610220207720688069D3
:1016400010F4407F204602D0FFF7CAFF04E000F00C
:101650007BF8204600F079F8257720680169C943B6
:10166000090716D4C168C943090712D46FF00801ED
:101670000161042020772068C0698007204602D0DD
:10168000FFF7AEFF04E000F05FF8204600F05DF8E1
:10169000257720680169C943C90617D4C168C943C1
:1016A000C90613D46FF0100101610820207720686B
:1016B000C06910F4407F204602D0FFF791FF04E09C
:1016C00000F042F8204600F040F8257720680169D4
:1016D000C943C90708D1C168C943C90704D1891ED4
:1016E0000161204600F032F820680169C94309060B
:1016F00009D4C168C943090605D46FF080010161AE
:101700002046FFF753FE20680169C943490609D402
:10171000C168C943490605D46FF040010161204604
:1017200000F00EF920680169C94389060BD4C1682D
:10173000C943890607D46FF0200101612046BDE846
:101740007040FFF734BE70BD7047704770B5764982
:1017500088427DD1754840F26E51754C01804FF43E
:10176000B961418040F2B45181804FF4FA61C18087
:10177000A52020706E20E07205202073C8216173BF
:10178000A073B421E1732074D020E0760720207785
:1017900001F0CEFB002565770120617F225C401CB3
:1017A0001144C0B261771D28F7D3604C4FF0640339
:1017B000143C4FF01E02E07908B15D4901E05B493D
:1017C00008315948803000F0B7FC574800217F3875
:1017D0004554491CC9B22029FAD3D5210170417062
:1017E0005249891F64230A8812FB03F2130A83708B
:1017F000C2704A88642312FB03F2130A0371427118
:101800008988642211FB02F10A0A8271C171B4F95C
:101810000A10C1EBC10202EB01120A2192FBF1F3A3
:1018200092FBF1F11B0A03724172A189642211FB40
:1018300002F10A0A82723F4AC172917801EB81017A
:10184000490001733C498B7803EB83035B0000E0A4
:1018500068E04373394B9C7804EB84046400847320
:10186000147904EB84046400C4730C7904EB8404DD
:10187000640004741C7904EB840464004474947957
:1018800004EB8404640084748C7904EB84046400A5
:10189000C4749C7904EB840464000475147804EB2C
:1018A0008404640044750C7804EB8404640084753B
:1018B0001C7804EB84046400C475147A04EB84047B
:1018C000640004760C7A04EB8404640044761C7A89
:1018D00004EB840464008476927A02EB8202520064
:1018E000C276897A01EB810149000177997A01EB8F
:1018F0008101490041770221827F435C491C1A44DF
:10190000C9B282771E29F7D3FD21C17780F8201054
:101910000549BDE87040642321227F3901F23F1060
:1019200000F00ABC70BD00006C0100201400002013
:10193000EC020020900000209C000020A800002065
:101940007047704770B5026804461068D1685369E3
:1019500010F00F0F53D003F0010501F490762E43E1
:101960005FD0C20705D0CA0503D5E26B42F0010281
:10197000E263420705D5DA0703D0E26B42F00202C8
:10198000E263820705D5DA0703D0E26B42F0040276
:10199000E263020707D501F020022A4303D0E26B7D
:1019A00042F00802E263E26B002A34D0800604D5DC
:1019B000880602D5204600F05BFE20684069E16B96
:1019C000C0F3801001F008010143204624D000F04C
:1019D00041FE2068416949061AD5416921F040015C
:1019E0004161606BA0B11B490165606BFFF718F89E
:1019F000002810D0606B016DBDE870400847830679
:101A00000FD58B060DD52046BDE8704000F030BEE6
:101A10002046FFF796FF70BDFFF793FF0020E063BD
:101A200070BD030606D50B0604D52046BDE8704000
:101A300000F0FEBE4006F3D54806F1D5D168204639
:101A400021F04001D160202184F8391000F0D1FB51
:101A500070BD0000452600082DE9F04786B0044619
:101A600014216846FEF7E4FB70486F4B226800249F
:101A70006E491038022503260827DFF8B4A19A42E0
:101A800032D10A6842F480120A60096801F48011B8
:101A90000591016841F004010160016801F0040151
:101AA0000591016841F008010160006802AA00F098
:101AB000080005909814CDE9000582E8D000694639
:101AC0005046FEF7D3FF0420CDE9000502AA69467F
:101AD00082E8D0005748FEF7C9FF032202213520D3
:101AE000FFF786F935202AE0504BDFF84C811B1DAB
:101AF000DFF848914FF0070C424525D1196841F0B5
:101B000010011960196801F010010591016841F098
:101B100001010160006802AA00F0010005904FF485
:101B2000C060CDE9000582E8501069464846FEF7DE
:101B30009DFF002202212520FFF75AF92520FFF7FB
:101B40004AF906B0BDE8F087DFF8F480424520D1BD
:101B50000A6842F400320A60096801F40031059114
:101B6000016841F001010160006802AA00F0010073
:101B700005900C20CDE9000582E8501069464846E2
:101B8000FEF774FF002201212620FFF731F92620FD
:101B9000D5E7DFF8B080424521D10A6842F48022BF
:101BA0000A60096801F480210591016841F0020191
:101BB0000160006802AA00F0020005904FF4406046
:101BC000CDE9000582E8501069461F48FEF74EFF38
:101BD000012202212720FFF70BF92720AFE71B493D
:101BE0008A42AED1196841F020011960196801F0EC
:101BF00020010591016841F004010160006802AA1A
:101C000000F004000590C020CDE9000582E8D00076
:101C100069465046FEF72AFF022211464720FFF789
:101C2000E7F847208BE700000050004040380240B2
:101C300000080240000C0240001001400000024079
:101C400000440040004800400004024000140140ED
:101C500090F83A30202B22D1F9B1F2B190F8383017
:101C6000012B1CD081628285C2850021C1632222A2
:101C700080F83A2080F838100168CA6842F480720F
:101C8000CA6001684A6942F001024A610068C1689D
:101C900041F02001C1600020704701207047022000
:101CA000704700002DE9F05F0746FB480026FB4C1B
:101CB0004FF0010887426FD100F22D11204691F8B4
:101CC00000C0C378807883F0FE02BCF1FE0F00D123
:101CD00020B10D464978FE2907D008E0E2700122C4
:101CE00084F80280EC48491C0DE0012805D04FF033
:101CF000FF09BCF1FE0F09D0E3E0E2700220A07002
:101D0000A91C0122E448FFF7A3FFE2E00228F3D375
:101D1000811E132902D2295C1944E170401CC0B213
:101D2000A07018280DD005D9A670E67085F800902F
:101D300085F80190A0784FF0010205EB0001D6482C
:101D4000F2E1687DE178884211D1D5484AF6AA21AE
:101D5000016084F80780A2790421D248FEF762FF6F
:101D6000A07928B10020A071A878012802D09FE0B6
:101D70000120F8E7E878642806D9643800D54042A5
:101D8000C0B200F019FF0DE007D2643800D5404220
:101D9000C0B200F0E9FD05E0A0E02879642801D197
:101DA00001F09AFC6879642802D901F063FD02E031
:101DB00001D201F057FD2879642806D9643800D58E
:101DC0004042C0B201F0F8FB0CE006D2643800D506
:101DD0004042C0B200F084FF04E0E878642801D1FA
:101DE00001F07AFC287A642806D9643800D540428C
:101DF000C0B201F047FD09E006D2643800D5404288
:101E0000C0B200F045FE01E001F0CAFC6A7AA648C3
:101E1000A97A00EB02221144EB7A2A7B00EB032320
:101E2000D7186B7BAA7B00EB032010444FF4B472ED
:101E300011FB02F14FF4167291FBF2F34FF4B471FF
:101E400017FB01F191FBF2F14FF4B47710FB07F0AF
:101E500090FBF2F24FF4C87013FB00F0242790FBC4
:101E6000F7F38E4803F26E53143003804FF4C873B7
:101E700011FB03F191FBF7F101F5B961418012FB10
:101E800003F191FBF7F101F2B4518180E97B112953
:101E900002D01F2903D005E04FF4FA6101E040F6BB
:101EA000B831C180287C40F2DC5101EB80002081F8
:101EB000A670E67085F8009085F8019085F802908C
:101EC00038E7A670E67085F8009085F8019085F8EF
:101ED0000290012275497048FFF7BAFE6E48403003
:101EE00087420BD10120401CC0B20D28FBD36F49A3
:101EF0000E224039A1F1AD00FFF7AAFE66488030FE
:101F0000874220D1A0F5F4710878772815D1207880
:101F100058B10D2803D20A5C63781A446270401CE1
:101F2000C0B220700E2818D094E05B4884F800807E
:101F300001228030491CFFF78BFE5D49012201F52B
:101F4000F470FFF785FE54488038874274D100F260
:101F50007B110878542870D09AE0487B62789042D0
:101F600075D18B794FF00A0A1A09B2FBFAF70A7990
:101F7000642502F00F0010FB05FC48794FF0640B5C
:101F8000050905EB85050CEB450500F00F0028441D
:101F900003F00F05B5FBFBF3404D384418440E35F4
:101FA000120968804FF0FF3349D01A4650436880C9
:101FB00091F80980A9464FEA1812B2FBFAF7CA79DC
:101FC000642502F00F0010FB05FC087A050905EBFB
:101FD00085050CEB450500F00F0028443D1808F07E
:101FE0000F07B7FBFBF02844A9F80000120928D01E
:101FF0001A465043A9F800000A7B91F80A80150997
:10200000B5FBFAF708F00F00642510FB05FCC87A51
:10201000050905EB85050CEB450500F00F0028448C
:1020200002F00F05B5FBFBF238441044A9F8040098
:102030005FEA181207D007E07AE011E007E001221A
:10204000B4E70122D5E701235843A9F8040026701C
:1020500066700E702078012201440F48803063E0E2
:10206000207968B1401CC0B20A18207112F8012C06
:102070000A2A01D00F2853D9CA79442A1AD049E034
:10208000054884F8048001228038491CFFF7E0FDF0
:1020900006490122323946E02C02002000000020CF
:1020A0000030004000100240D4FEFFFF5903002022
:1020B000C40000200A7A3D2A2CD1CB7A2E2B15D1D0
:1020C0004A7A2D2A12D0303A0B7B02EB4205C5EB3F
:1020D000C21203EBC2038A7A642512FB05F202F5F1
:1020E000E6721A44A2F5A052D03A12E08A7A2E2A59
:1020F00010D14A7A0D7B303A02EBC20707EB02128D
:1021000005EB820203EB83034FF6F05505EB430327
:102110001A44628166710E70CE728E720E542671F0
:102120002079012201440348BDE8F05FFFF790BD2C
:10213000BDE8F09FAC0100202DE9F843044690F87B
:1021400039001F4616460D46202850D1B5B1AEB114
:1021500094F8380001284AD0012084F838004FF064
:102160000008C4F83C80212084F83900FEF760FDA7
:10217000A6848146E68484F8388026E00120BDE804
:10218000F883E08C401EE084A0684B46B0F5805F89
:102190004FF000024FF080012046009703D000F07E
:1021A00078FBE8B90DE000F074FBC8B92888216815
:1021B000C0F308004860206908B16D1C05E0AD1C43
:1021C00003E0216815F8010B4860E08C0028D8D1A5
:1021D0004B46002240212046009700F05AFB08B1F0
:1021E0000320CCE7202084F839000020C7E7022034
:1021F000C5E77047FEE700007FB500241248009451
:10220000019402940F49039401604FF48031C0E9B6
:1022100001140461047680F820400C49C0E90A14D6
:102220000125C561C46080F830404561FEF7B1FA10
:102230000520CDE90005694602940348FEF7FEF942
:102240007FBD000000200140180100200100000FA8
:10225000F0B587B014216846FDF7EAFF3148002445
:10226000016841F010010160016801F01001059161
:10227000016841F080010160016801F08001059171
:10228000016841F001010160016801F0010105915F
:10229000016841F002010160016801F0020105914D
:1022A000016841F008010160016801F00801059131
:1022B000016841F00401016000681B4E00F0040059
:1022C0000590002210213046FEF7ACFC174F00228B
:1022D000C0213846FEF7A6FC102000901448CDE936
:1022E000010469463046FEF7C1FB04200090012539
:1022F000CDE90154694630460394FEF7B7FBC02090
:10230000CDE90005CDE9025469463846FEF7AEFB3B
:10231000012211460A20FEF76BFD0A20FEF75BFD45
:1023200007B0F0BD30380240001002400004024007
:102330000000111010B586B00024134800940194D9
:102340000294039404944FF080410594016053215A
:10235000C0E9011444F61F61C0E9031480218161C2
:10236000FFF76EF84FF48050009069460648FFF77B
:10237000CCF8049404A904480594FFF719F802481E
:10238000FFF7B2F806B010BD6C0100200D4810B583
:102390000B4901604FF4E1314160002181600C2262
:1023A000C160C0E9041281610A46C161FEF7CCFC3C
:1023B000BDE81040012204490248FFF749BC000073
:1023C00000500040AC010020270300200D4810B54C
:1023D0000B4901604FF4E1314160002181600C2222
:1023E000C160C0E9041281610A46C161FEF7ACFC1C
:1023F00004490122BDE81040DE310248FFF728BC45
:10240000004400402C0200200D4810B50B4901602B
:102410004FF4E1314160002181600C22C160C0E9CC
:10242000041281610A46C161FEF78EFCBDE81040CE
:10243000012204490248FFF70BBC000000140140D0
:10244000AC020020C4000020FEE7704770477047D0
:10245000FEF71EBC30B593B030216846FDF7E8FEAC
:1024600014210CA8FDF7E4FE1A480025016841F08C
:1024700080510160006800F080501190164801689A
:1024800041F4804101600068022400F48040119012
:10249000092000904FF4803001900120CDE905041F
:1024A0008005079008AA0420A82182E813000B9059
:1024B0006846FEF7B9FD0CA90F2081E831004FF402
:1024C000A0500F90E002109005210CA8FEF7C2FC6E
:1024D00013B030BD4038024000700040054801682C
:1024E00041F47001016003494FF0006080390860D9
:1024F0007047000088ED00E00148FFF772B8000067
:102500006C010020F0B50268254C264D264E274F61
:10251000274B4FF0804CA04209D0604507D0A8421D
:1025200005D0B04203D0B84201D0984204D122F085
:10253000700E4A6842EA0E02A0421BD0604519D0D4
:10254000A84217D0B04215D0B84213D0984211D04B
:10255000184DA8420ED0184DA8420BD0174DA842D6
:1025600008D0174DA84205D0164DA84202D0164DEE
:10257000A84203D122F44075CA682A434D6922F06B
:1025800080022A4302608A68C2620A688262A042AC
:1025900001D0984201D10969016301214161F0BD77
:1025A000000001400004004000080040000C004012
:1025B0000004014000400140004401400048014047
:1025C00000180040001C00400020004010B5846846
:1025D00042EA032224F47F440A432243826010BD6E
:1025E000826822F070020A4342F00701816070475E
:1025F00010B5036A046A24F001040462846924F0BB
:10260000F00444EA021423F00A020A4384610262DD
:1026100010BD10B5036A23F0100303628369046AD6
:1026200023F4704343EA023224F0A00343EA011189
:102630008261016210BD00000148FFF783B900000C
:10264000AC01002010B5806B0021C185C184FFF76B
:1026500078F910BD0168CA6822F49072CA600168F6
:102660004A6922F001024A61202180F83A1070473D
:1026700010B590F83A10222901D0022010BD8168CF
:10268000B1F5805F11D00169002901681FD0496848
:1026900001F07F03816A4A1C82620B70C18D491E62
:1026A0000904090CC18518D02BE00269816A002A4F
:1026B0000268526805D0D2B20A80816A491C8162E0
:1026C000ECE7C2F308020A80816A891CF7E74A68CE
:1026D000816A4B1C83620A70E0E70168CA6822F0D5
:1026E0002002CA600168CA6822F48072CA60016868
:1026F0004A6922F001024A61202180F83A10FFF76E
:10270000D1FA002010BD00002DE9F0410446006818
:102710000169E26821F44051114301612169A06817
:10272000E26908436169114308432168CA6849F2B4
:102730000C639A430243CA6020684169A26921F48C
:10274000407111434161E069192764253226B0F5D3
:10275000004F354A354920684FF0000806D08842BE
:1027600001D0904236D1FEF71FFC35E0884201D0FF
:10277000904202D1FEF718FC01E0FEF705FC61680B
:102780004A18A0FB070148EB0803FDF719FD0146B5
:10279000B0FBF5F00201B1FBF5F06FF01803584300
:1027A00001EB800006EBC000B0FBF5F000F0F80094
:1027B00002EB4002B1FBF5F0584301EB800006EB61
:1027C000C000B0FBF5F000F00700216810448860FD
:1027D000BDE8F081FEF7D8FB61688B0F8A00A0FB93
:1027E0000701FDF7EDFC0146B0FBF5F06FF01802B4
:1027F000504301EB800006EB0010B0FBF5F000F059
:10280000F002B1FBF5F002EB0012B1FBF5F06FF056
:102810001803584301EB800006EB0010B0FBF5F005
:1028200000F00F00D1E7000000140140001001404B
:1028300090F83910212901D0022070478168B1F544
:10284000805F016A0BD04A1C0262026809785160FD
:10285000C18C491E0904090CC1840ED017E00988F7
:102860000268C1F30801516001690029016A02D0C0
:10287000491C0162ECE7891CFBE70168CA6822F089
:102880008002CA600068C16841F04001C160002058
:1028900070472DE9F041984617460E460446069DBE
:1028A0001DE0681C1BD02DB1FEF7C2F9A0EB08009B
:1028B000A84214D92068C16821F4D071C160206891
:1028C000416921F001014161202084F8390084F838
:1028D0003A00002084F838000320BDE8F081206829
:1028E000006836EA000004D00020B842D9D00020A9
:1028F000F3E70120F9E700000148FFF723B80000E3
:10290000EC0100200148FFF71DB800002C02002058
:102910000148FFF717B800006C0200200148FFF7DC
:1029200011B80000AC020020FEE70907090E0028DC
:1029300004DB00F1E02080F80014704700F00F0085
:1029400000F1E02080F8141D704702E008C8121F53
:1029500008C1002AFAD170477047002001E001C188
:10296000121F002AFBD17047F0B5474CB6EE000AA3
:10297000E188E6898A00A2F5B8520A21703A92FBF2
:10298000F1F34343642293FBF2F5A389278A1D44A4
:1029900005F2DC5500EE905AF8EEE00A60EE800A8F
:1029A000FCEEE00A10EE905A1FFA85FC6588AD0037
:1029B000A5F5B855703D95FBF1F5454395FBF2F54E
:1029C000354405F2DC5500EE905AF8EEE00A60EE70
:1029D000800AFCEEE00A10EE905AAEB2A588AD0077
:1029E000A5F5B855703D95FBF1F5454395FBF2F51E
:1029F0003D44278805F2DC55BF00A7F5B857703F66
:102A000097FBF1F100EE905A414391FBF2F0F8EEA2
:102A1000E00A618A084460EE800A00F2DC506146F8
:102A2000FCEEE00A10EE905A00EE900AADB2F8EE1D
:102A3000E00A20EE800ABCEEC00A10EE100A87B24F
:102A4000184600F06FF8A0813146E08900F028F8C0
:102A5000E0812946208A00F065F820823946608AA4
:102A600000F01EF809496082A2894A71120A8A712F
:102A7000E289CA71120A0A72228A4A74120A8A7494
:102A8000C874000A0875F0BD3C000020EC0200206C
:102A90000248418C491D4184704700003C000020E1
:102AA00030B51F4A40F2DC53A1F2DC55B2F91840B0
:102AB000642299421BD2984205D8411A614391FB86
:102AC000F2F1411A29E0694201EB8111B1FBF2F107
:102AD0000144A1F2DC51411A99421ED2A1F2DC510B
:102AE00049426143B1FBF2F10144411A13E09842BB
:102AF00002D3091A014410E06543B5FBF2F1091A4B
:102B000001F2DC510144994207D9A1F2DC5101EBF9
:102B10008110B0FBF2F101F2DC5188B230BD00004F
:102B20003C000020F0B5234B40F2DC52A1F2DC5413
:102B3000B3F91850642391421BD3904205D30E1A67
:102B40006E4396FBF3F6304413E004EB8416B6FBB9
:102B5000F3F6361A06F2DC568719974208D9304444
:102B6000A0F2DC506843B0FBF3F000F2DC5000E070
:102B7000384691421BD2904202D8411A401A16E0C0
:102B800061426943B1FBF3F10144A1F2DC51411A06
:102B900091420BD2A1F2DC51494201EB8111B1FB10
:102BA000F3F10144401A00F2DC5000E0084680B224
:102BB000F0BD00003C000020F0B5474CB6EE000A26
:102BC000A188E6898A00A2F5B8520A21703A92FBE0
:102BD000F1F34343642293FBF2F5A389278A1D4452
:102BE00005F2DC5500EE905AF8EEE00A60EE800A3D
:102BF000FCEEE00A10EE905A1FFA85FC2588AD0025
:102C0000A5F5B855703D95FBF1F5454395FBF2F5FB
:102C1000354405F2DC5500EE905AF8EEE00A60EE1D
:102C2000800AFCEEE00A10EE905AAEB2E588AD00E4
:102C3000A5F5B855703D95FBF1F5454395FBF2F5CB
:102C40003D44678805F2DC55BF00A7F5B857703FD3
:102C500097FBF1F100EE905A414391FBF2F0F8EE50
:102C6000E00A618A084460EE800A00F2DC506146A6
:102C7000FCEEE00A10EE905A00EE900AADB2F8EECB
:102C8000E00A20EE800ABCEEC00A10EE100A87B2FD
:102C90001846FFF747FFA0813146E089FFF700FFA4
:102CA000E0812946208AFFF73DFF20823946608A6D
:102CB000FFF7F6FE09496082A2894A71120A8A71F9
:102CC000E289CA71120A0A72228A4A74120A8A7442
:102CD000C874000A0875F0BD3C000020EC0200201A
:102CE000F0B5454CB6EE000AA188B4F80CC08D00D2
:102CF000A5F5B8520A21A43A92FBF1F364224343AA
:102D000093FBF2F3634403F2DC5300EE903AA5F533
:102D1000B855703DF8EEE00A95FBF1F560EE800ADB
:102D2000E789454395FBF2F5FCEEE00A10EE903A98
:102D30001FFA83FE63889B00A3F5BE5696FBF1F64F
:102D4000464396FBF2F63E4406F2DC5600EE906AED
:102D5000278AA3F5B853F8EEE00A703B3D4493FB95
:102D6000F1F160EE800A05F2DC55414391FBF2F08F
:102D7000FCEEE00A618A10EE906A00EE905A084478
:102D800000F2DC50F8EEE00AB6B2714660EE800A5E
:102D9000FCEEE00A10EE905A00EE900AADB2F8EEAA
:102DA000E00A20EE800ABCEEC00A10EE100A87B2DC
:102DB0006046FFF7B7FEA0813146E089FFF770FE5D
:102DC000E0812946208AFFF7ADFE20823946608ADD
:102DD000FFF766FE09496082A2894A71120A8A7168
:102DE000E289CA71120A0A72228A4A74120A8A7421
:102DF000C874000A0875F0BD3C000020EC020020F9
:102E00002DED088BFDF74CFFFFF724FBFFF720FAB1
:102E10003C483B4901600221416040F6FF718160FE
:102E2000FDF70CFFFFF786FAFFF7B0FA3548364991
:102E30008C30002401604FF4E135C0E901540C26C8
:102E4000C460C0E90446846122462146C461FDF79E
:102E50007BFFFFF7BBFA2E482C4900220160C0E936
:102E60000154C460C0E9044684611146C461FDF7A1
:102E70006BFFFFF7C9FAFFF7BFF90020401C80B2D3
:102E80000528FBD9294D9FED238B9FED249BDFED7A
:102E900025AA9FED25AA4FF4FA76B2EE04BA194896
:102EA00000244838FDF746FD164831464838FDF7FE
:102EB000EFFC14484838FDF767FC800504D511483D
:102EC0004838FDF763FC04462046FDF72EFA53EC24
:102ED000182BFDF7B8F953EC192BFDF7B4F9FDF7F2
:102EE00031FA00EE100AF0EE4A0A50EE2A0A80EE9D
:102EF0008B0ABDEEC00A10EE100AA881CFE70000D1
:102F000000300040600100200010014000480040F7
:102F10006C0200206666666666660A400000000075
:102F20000000303F00007A440000FA430000002017
:102F30002DE9F04F8E4B8EB0002058639863D86314
:102F400018648C481A8C9C8B01884FF00A09511A1E
:102F50000AB241888088611ADC8B09B2201A864C3B
:102F600000B2B4F90040C4EBC40505EB041595FBB1
:102F7000F9F45D8C2C1B0FFA84FC6FF0B304B42AB7
:102F800002DBA2F5B47203E0A24202DC02F5B472E5
:102F900012B2B42902DBA1F5B47103E0A14202DC54
:102FA00001F5B47109B2B42802DBA0F5B47003E0F6
:102FB000A04202DC00F5B47000B26D4C603464884D
:102FC00014FB02F5642495FBF4F7694DDFF8A0B11A
:102FD0006C350BF1540BB5F90260B3F9245002952E
:102FE0006D42B3F92C8002EB450545446E4396FBD8
:102FF000F4F57E19029DBBF90270D3F84480551B8D
:1030000007FB058535445D63059504950BF10C05BB
:10301000AD8815FB01F595FBF4F70BF11805B5F933
:103020000460B3F9265003956D42B3F92E8001EB8D
:10303000450545446E4396FBF4F57E19039DBBF9A7
:103040000470D3F848804D1B07FB058535449D630C
:10305000B3F928E0AA46BBF90660A0EB0E056E4363
:1030600096FBF9F5DE6C2E440BF10C05ED8815FB93
:1030700000F595FBF4F577190BF11805B3F93080DD
:10308000B5F90660CEF1000500EB450545446E43F9
:1030900096FBF4F53D44DD63BBF90060B3F92AB05B
:1030A000A946ACEB0B056E4396FBF4F51E6D2E4462
:1030B0002F4D60352D8815FB0CF595FBF4F5771930
:1030C0002B4DB3F932806C35B5F90060CBF10005BA
:1030D0000CEB450545446E4396FBF4F43C441C64FC
:1030E000049D462D01DD462700E0059F6FF0450851
:1030F0005F63474500DA47465F63BAF11E0F01DDA3
:103100001E2600E056466FF01D059E63AE4200DAB3
:103110002E469E63B9F13C0F01DD3C2500E04D4693
:103120006FF03B09DD634D4500DA4D46DD63462C0B
:1031300000DD46241C64444500DA44469E64C3E92D
:103140001047C3E91354029C9C859A84039ADA853C
:10315000D984A3F830E01885A3F832B0A3F82AC0C8
:1031600000F026F90EB0BDE8F04F00F007B80000FF
:103170003C0000200E0000200A0000202DE9F04F46
:103180008948016C04894689838AC58A48420FFAB6
:1031900080F964200AB2CA46002904DA02EB8211DF
:1031A00001EB410103E002EB4201C1EBC21191FBD3
:1031B000F0F291FBF0F1DFF8F0C140F2DC5B12B20B
:1031C000BCF840C009B25F46CCF1000C4FF09A0841
:1031D0001CFB08FC5C450CDA04EB0908D84508DD4B
:1031E00009EB04074FF09A08A7F2DC5707FB08F732
:1031F0000DE0BC4211DD9CFBF0F8A044B8450CDAB0
:103200009CFBF0F72744A7F2DC5707EB871797FBE7
:10321000F0F73F1B07F2DC5703E05C4502DB9CFB49
:10322000F0F7B9465F465E4513DA9A2712FB07FEB0
:103230009EFBF0F707EB06085F46D84509DD9EFBCD
:10324000F0F23244A2F2DC5202EB821292FBF0F274
:103250000BE0B84646450CDDB718474509DA9A2217
:10326000A7F2DC57574397FBF0F2921B02F2DC52B5
:1032700006E0464504DA9A2712FB07F292FBF0F2C9
:103280005F465B450CDA03EB0A08D84508DD0AEB1C
:1032900003074FF09A0CA7F2DC5707FB0CF70DE081
:1032A000BB4211DD9CFBF0F89844B8450CDA9CFB5E
:1032B000F0F71F44A7F2DC5707EB871797FBF0F7EF
:1032C000FF1A07F2DC5705E05B4502DB9CFBF0F7D9
:1032D00000E05746DC465D4514DA4FF09A0C11FBCE
:1032E0000CFA9AFBF0FC0CEB0508DC46D84509DD2E
:1032F0009AFBF0F12944A1F2DC5101EB811191FB21
:10330000F0F00DE0E04645450EDD05EB010CC4454F
:103310000ADA9A21ACF2DC5C0CFB01FC9CFBF0F0BD
:10332000411B01F2DC5107E0454505DA4FF09A0CEC
:1033300011FB0CF191FBF0F13B4409EB04004FF45D
:10334000FA673244294440F2974CB84201DD3846CE
:1033500002E0604500DA604640F221764FF47A756B
:10336000B24201DD324602E0AA4200DA2A46BB42FE
:1033700001DD3B4602E0634500DA6346B14201DD10
:10338000314602E0A94200DA2946084C6070000A82
:10339000A070E270100A20716375180AA075E175BB
:1033A000080A2076BDE8F08F3C000020EC020020E7
:1033B0002DE9F04FDFF8F8C140F2DC55BCF83C00D5
:1033C000BCF80C4001B248420FFA80F860460A4649
:1033D000B0F918B0C64611FB0BF3B0F91AA064207F
:1033E000AC4208D26618AE4205DD1119A1F2DC51DB
:1033F00001FB0BF10DE0AC4211D993FBF0F6264432
:10340000AE420CDA93FBF0F12144A1F2DC5101FB56
:103410000AF191FBF0F1091B01F2DC5103E0AC422F
:1034200001D393FBF0F1BCF80E60AE420ED293FBD9
:10343000F0F73744AF4209DD93FBF0F23244A2F2D9
:10344000DC5202FB0AF292FBF0F20AE0AE420CD927
:10345000B718AF4209DAA7F2DC5707FB0BF797FB67
:10346000F0F2921B02F2DC5203E0AE4201D293FB77
:10347000F0F24F4D4E4B40F2DC57B5F83CC01B8A82
:103480002D8BCCF1000C1CFB05F9BB420CD203EBDD
:10349000080740F2DC55AF4206DD08EB0305A5F254
:1034A000DC5505FB0BF50FE040F2DC55AB4211D9C2
:1034B00099FBF0FC9C44AC450CDA99FBF0F51D44FB
:1034C000A5F2DC5505FB0AF595FBF0F5EF1A07F2BE
:1034D000DC5705E0AB4202D399FBF0F700E047462A
:1034E000334D40F2DC5C6D8A65450FD299FBF0FCF0
:1034F0000CEB050840F2DC5CE04507DD99FBF0FCD5
:10350000AC44ACF2DC5C0CFB0AFC0BE040F2DC5897
:1035100045450ED905EB0E0CC4450ADAACF2DC5C6D
:103520000CFB0BFC9CFBF0F0A0EB050C0CF2DC5C44
:1035300005E0454501D3F44601E099FBF0FC08198C
:103540009119FA184FF4FA640CEB050340F297470F
:10355000A04201DD204602E0B84200DA384640F2DF
:1035600021764FF47A75B14201DD314602E0A9427D
:1035700000DA2946A24201DD224602E0BA4200DA20
:103580003A46B34201DD334602E0AB4200DA2B4655
:10359000084C6071000AA071E171080A207262741F
:1035A000100AA074E374180A2075BDE8F08F0000BB
:1035B0003C000020EC020020F0B5454CB6EE000ABD
:1035C000E188B4F80CC08D00A5F5B9520A2192FB30
:1035D000F1F36422434393FBF2F3634403F2DC53BD
:1035E00000EE903AA5F5B855703DF8EEE00A95FB6F
:1035F000F1F560EE800AE789454395FBF2F5FCEEB4
:10360000E00A10EE903A1FFA83FE23889B00A3F590
:10361000B8563C3E96FBF1F6464396FBF2F63E4426
:1036200006F2DC5600EE906A278AA3F5B853F8EE4E
:10363000E00A703B3D4493FBF1F160EE800A05F235
:10364000DC55414391FBF2F0FCEEE00A618A10EE9A
:10365000906A00EE905A084400F2DC50F8EEE00A5E
:10366000B6B2714660EE800AFCEEE00A10EE905AA7
:1036700000EE900AADB2F8EEE00A20EE800ABCEE51
:10368000C00A10EE100A87B26046FFF74BFAA0811D
:103690003146E089FFF704FAE0812946208AFFF7E6
:1036A00041FA20823946608AFFF7FAF909496082B7
:1036B000A2894A71120A8A71E289CA71120A0A72CF
:1036C000228A4A74120A8A74C874000A0875F0BD06
:1036D0003C000020EC020020F0B52F4CB6EE000AB2
:1036E000A089E28900F2DC5100EE901A02F2DC526D
:1036F000F8EE600A60EE800AFCEEE00A10EE901A26
:1037000000EE902A89B2F8EE600A60EE800AFCEEC4
:10371000E00A10EE902A97B2228A02F2DC5200EE02
:10372000902AF8EE600A60EE800AFCEEE00A10EEE5
:10373000902A96B2628A02F2DC5200EE902AF8EEEB
:10374000600A20EE800ABCEEC00A10EE102A95B284
:10375000FFF7E8F9A0813946E089FFF7A1F9E08198
:103760003146208AFFF7DEF920822946608AFFF77A
:1037700097F90A496082A2894A71120A8A71E2891C
:10378000CA71120A0A72228A4A74120A8A74C874A6
:10379000000A0875F0BD00003C000020EC0200208B
:1037A000F0B52E4CB6EE000A2089628900F2DC5199
:1037B00000EE901A02F2DC52F8EE600A60EE800A27
:1037C000FCEEE00A10EE901A00EE902A89B2F8EEB4
:1037D000600A60EE800AFCEEE00A10EE902A97B2D2
:1037E000A28A02F2DC5200EE902AF8EE600A60EE45
:1037F000800AFCEEE00A10EE902A96B2E28A02F20B
:10380000DC5200EE902AF8EE600A20EE800ABCEE50
:10381000C00A10EE102A95B2FFF784F920813946CC
:103820006089FFF73DF960813146A08AFFF77AF998
:10383000A0822946E08AFFF733F9E082084922890D
:103840004A70130A8B706289CA70120A0A71247D49
:103850004C758B75C8750A76F0BD00003C000020E1
:10386000EC0200200248C18B491FC1837047000051
:103870003C0000200248C18B491DC18370470000F5
:103880003C0000200448418C491F09B241840A29A8
:1038900001DC0A21418470473C0000200000000048
:1038A00000000000010203040607080900000000F0
:1038B00001020304D438000800000020C400000006
:1038C0004A29000898390008C4000020C4060000F6
:1038D0005A2900080000000000000000DC0500007C
:1038E00000000000000000006E05C805B405D00708
:1038F000A5DC05DC05DC05DC0500006E05C805B4AB
:1039000005DC05DC05DC05DC050000D007D800007F
:103910005E0614055A05A406DC05DC05DC05DC059D
:10392000DC05DC05DC05DC059A00410000005A00DE
:10393000000028000000000000000000000000005F
:103940000000000000000000000000000000000077
:103950000000000000000000000000000000000067
:103960000000000058020A000700490000000000A3
:103970001400020014000F0000000000BC029001BF
:103980000000200300000000010000001000000003
:08399000000000000024F40017
:040000050800018965
:00000001FF
