:020000040800F2
:100000000006002045010008DF180008231500083D
:10001000DD180008B1010008611D000800000000A3
:10002000000000000000000000000000E3180008CD
:10003000B301000800000000E1180008E5180008FE
:100040005F0100085F0100085F0100085F01000810
:100050005F0100085F0100085F0100085F01000800
:100060005F0100085F0100085F0100085F010008F0
:100070005F0100085F0100085F0100085F010008E0
:100080005F0100085F0100085F0100085F010008D0
:100090005F0100085F0100085F0100085F010008C0
:1000A0005F0100085F0100085F0100085F010008B0
:1000B0005F0100085F0100085F0100085F010008A0
:1000C0005F0100085F0100085F0100085F01000890
:1000D0005F010008491D0008551D00085F01000868
:1000E0005F0100085F0100085F0100085F01000870
:1000F0005F0100085F0100085F0100085F01000860
:100100005F0100085F0100085F0100085F0100084F
:100110005F0100085F0100085F0100085F0100083F
:100120005F0100085F0100085F0100085F0100082F
:10013000DFF80CD000F02AF800480047A11D0008A5
:10014000000600200648804706480047FEE7FEE715
:10015000FEE7FEE7FEE7FEE7FEE7FEE7FEE7FEE777
:100160003D19000831010008D2B201E000F8012B6E
:10017000491EFBD270470022F6E710B513460A4627
:1001800004461946FFF7F0FF204610BD064C074D08
:1001900006E0E06840F0010394E807009847103457
:1001A000AC42F6D3FFF7C8FF081E0008281E00085F
:1001B000FEE770472DE9F05F90F821100024022936
:1001C00003D004218163012485E001680A6822F0DC
:1001D0000E020A6001680A6822F001020A603F4EBE
:1001E0003E4FB215DFF8F4C0DFF8F090DFF8ECA076
:1001F000DFF8E8B0DFF8E4E00168783F13011502AA
:10020000ACF1640CA9F15009AAF13C0AABF1280B3E
:10021000AEF1140E4FF48018B14227D9B9420ED076
:10022000614512D049451DD0514518D0594518D0C7
:10023000714501D1424615E0294EB14201D101225A
:1002400010E0274E1436B14201D110220AE0244EAC
:100250002836B14206D0224A3C32914201D11A4698
:1002600000E02A461E49091F0A602BE0B94213D05C
:10027000614517D0494522D051451DD059451DD063
:10028000714501D142461AE0B14202D14FF080726D
:1002900015E0134EB14201D1012210E0104E143688
:1002A000B14201D110220AE00D4E2836B14206D0EB
:1002B0000B4A3C32914201D11A4600E02A460749D6
:1002C00080394A60012180F82110002180F8201037
:1002D000416B01B188472046BDE8F09F8000024095
:1002E000080402402DE9F84FDFF8C891002409F115
:1002F000040A0AF1040B23460F270BF1040ED1E088
:100300000125A54006EA0502AA4276D1DFF8A8C178
:100310004E68A6EB0C0866452BD00DDC032E34D0BE
:1003200005DC36B3012E19D0022E2FD11BE0112E81
:1003300016D0122E2AD119E0B8F5881F19D006DC84
:10034000B8F5803F15D0B8F5801F1FD111E0B8F582
:10035000001F0ED0B8F5041F18D10AE0CB6815E0D5
:10036000CB681B1D12E0CB6808330FE0CB680C3361
:100370000CE08B682BB1012B4FF0080303D04561D3
:1003800004E0042302E0056100E00023FF2A01D815
:10039000064601E000F104064FEA840501D9A5F103
:1003A0002005D6F8008007FA05FC28EA0C0803FAB5
:1003B00005F548EA0508C6F800804D68ED0070D5DF
:1003C0003E4DAE6946F00106AE61AD6924F003060C
:1003D00005F0010500953A4D06EB050CDCF80850D8
:1003E000A607360F07FA06F825EA0805DFF8D480D5
:1003F000404503D14FF0000825E052E0DFF8C88007
:10040000404502D14FF001081DE0DFF8C0804045B3
:1004100002D14FF0020816E0DFF8B480404502D167
:100420004FF003080FE0DFF8AC80404502D14FF0F9
:10043000040808E0DFF8A080404502D14FF005082D
:1004400001E04FF0060808FA06F848EA0508CCF87B
:1004500008804D68D9F80060ED034D4601D516437C
:1004600000E096432E604D68DAF80060AD03554613
:1004700001D5164300E096432E604D68DBF800601E
:10048000ED025D4601D5164300E096432E604D68AF
:10049000DEF80060AD02754601D5164300E09643D4
:1004A0002E60641C0A681646E2407FF429AFBDE85E
:1004B000F88F0000000401400000111000100240FD
:1004C0000000014000080140000C01400010014004
:1004D0000014014000180140001C01400AB10161F4
:1004E00070470904FBE7000001488068704700007E
:1004F0000400002070B5040011D021684CF6CC40F7
:100500000860216845F255500860D4E90001416057
:100510002168A0688860FFF7E7FF054609E0012031
:1005200070BD00BFFFF7E0FF401B262801D9032064
:1005300070BD2068C0680028F4D121684AF6AA205E
:100540000860002070BD00000248816802781144F4
:100550008160704704000020074810B5016841F031
:1005600010010160032000F0BFF8002000F006F841
:1005700000F024F8002010BD0020024070B50D4DA1
:1005800004464FF47A712878B1FBF0F00A49096803
:10059000B1FBF0F000F036FB48B9102C07D2002276
:1005A0002146501E00F080F800206C6070BD0120D4
:1005B00070BD000004000020100000200E4808B5A7
:1005C000816941F001018161816901F001010091BE
:1005D000C16941F08051C161C06900F08050009054
:1005E000052000F081F80548416821F0E06141F004
:1005F0000071416008BD0000001002400000014091
:100600002DE9F04116460F46040004D094F8390055
:10061000002518B107E00120BDE8F08184F83850CA
:10062000204600F03BFE242084F839002068C16891
:1006300021F40051C160204601F02AFB20680169C5
:1006400021F4904101612068416921F02A01416152
:100650002068016921F00F010161206801693943B7
:1006600001612068C16821F40061C1602068C1682F
:100670003143C1602068C16841F40051C160E56345
:10068000202084F8390084F83A000020C4E70028CC
:1006900009DB00F01F02012191404009800000F1B8
:1006A000E020C0F800117047F0B40E4B1B680C46F8
:1006B000C3F30223C3F10705042D00D90425191D36
:1006C000072901D2002300E0DB1E012606FA05F10E
:1006D000491E214099409E40761E16403143F0BC91
:1006E00001F03FBB0CED00E0064900F0070208688E
:1006F0004FF6FF03184040EA0220034A1043086007
:10070000704700000CED00E00000FA052DE9F0470D
:100710000F46050061D0434E306800F00700B84234
:1007200009D2306820F0070038433060306800F0AC
:100730000700B84251D128683B4C810712D54007C9
:1007400003D5606840F4E06060602878000703D556
:10075000606840F4605060606068A96820F0F00054
:10076000084360602878C00728D06868012810D046
:100770002168022810D0890700292EDA616821F04B
:10078000030101436160FFF7AFFE804641F2883903
:100790000DE021688903EFE78901EDE7FFF7A4FE8B
:1007A000A0EB0801494502D90320BDE8F087606845
:1007B000696800F00C00B0EB810FEFD1306800F0F9
:1007C0000700B8420BD9306820F00700384330608A
:1007D000306800F00700B84201D00120E5E7287832
:1007E000400705D56068E96820F4E0600843606070
:1007F0002878000706D56068296920F4605040EA2F
:10080000C100606000F038F86168084AC1F3031164
:10081000515CC8400649086006480068FFF7AEFE14
:100820000020C2E70020024000100240F01D000836
:1008300010000020080000200448054900684968AD
:10084000044AC1F30221515CC840704710000020E7
:1008500000100240001E000804480549006849686D
:10086000044AC1F3C221515CC84070471000002007
:1008700000100240001E000812A185B00FC98DE8CB
:100880000F0014A0144A006804905168134801F046
:100890000C03042B10D0082B0ED1C1F38343C903E2
:1008A0001DF803000AD5516804AAC1F34041515C08
:1008B0000A4A5043B0FBF1F005B07047084948437D
:1008C000FAE7000002030405060708090A0B0C0DED
:1008D0000E0F1010010200000010024000127A00FA
:1008E00000093D002DE9F84F040070D02078C04D7C
:1008F000C00749D06868C0F38100012807D0686844
:10090000C0F38100022809D16868C00306D52868B1
:10091000800339D560680028E7D035E06068B0F51D
:10092000803F0BD010B1B0F5A02F11D0286820F473
:1009300080302860286820F4802002E0286840F495
:1009400080302860606890B1FFF7CEFD06460AE06F
:10095000286840F480202860F0E700BFFFF7C4FD5E
:10096000801B642873D828688003F7D50CE0FFF754
:10097000BBFD064605E000BFFFF7B6FD801B6428FF
:10098000F0D828688003F7D420789A4E80074FF07B
:1009900001094FF0000839D5686810F00C0F07D036
:1009A0006868C0F38100022809D16868C00306D4D2
:1009B0002868800714D52069012808D110E0206933
:1009C000B0B1C6F80090FFF78FFD074605E00AE1D9
:1009D000FFF78AFDC01B0228C4D828688007F7D516
:1009E0002868616920F0F80040EAC10028600DE045
:1009F000C6F80080FFF778FD074604E0FFF774FDB6
:100A0000C01B022823D828688007F7D42078000765
:100A10002CD57948A169D9B1C0F80090FFF764FDE1
:100A2000074604E0FFF760FDC01B02280FD8686A84
:100A30008007F7D571484FF4FA510068B0FBF1F028
:100A4000009000BF0098411E0091FAD20EE080E0B5
:100A5000C0F80080FFF748FD074604E0FFF744FDBB
:100A6000C01B022875D8686A8007F7D42078400731
:100A700060D5E8690027C00008D4E86940F08050DC
:100A8000E861E869012700F0805000905C48016847
:100A9000C90513D40168834641F480710160FFF7F2
:100AA00023FD824606E000BFFFF71EFDA0EB0A0013
:100AB00064284ED8DBF80000C005F5D5E0680128B1
:100AC0000AD008B1052813D0286A20F00100286256
:100AD000286A20F0040002E0286A40F00100286241
:100AE000E06841F2883B98B1FFF7FEFC82460BE0DC
:100AF000286A40F004002862EEE700BFFFF7F4FC2C
:100B0000A0EB0A0159455AD8286A8007F6D50CE0AF
:100B1000FFF7EAFC824605E0FFF7E6FCA0EB0A01DE
:100B200059454CD8286A8007F6D41FB1E86920F0EF
:100B30008050E861E06988B36968C1F381010229E6
:100B400044D00228C6F8608004D0FFF7CDFC0446EC
:100B500038E034E0FFF7C8FC074604E0FFF7C4FCC8
:100B6000C01B02282BD828688001F7D4206AB0F572
:100B7000803F05D16868A16820F4003008436860B0
:100B8000D4E908010843696821F4741108436860D6
:100B9000C6F86090FFF7A8FC044606E025E000BF19
:100BA000FFF7A2FC001B022809D828688001F7D5AE
:100BB0001BE000BFFFF798FC001B022802D90320AE
:100BC000BDE8F88F28688001F4D40EE00128F7D042
:100BD0006868226A00F48031914204D1616A00F4AD
:100BE0007010884201D00120EAE70020E8E7000009
:100BF00000100240000042428004424210000020E7
:100C00000070004010B5401EB0F1807F01D301207C
:100C100010BD4FF0E02460610F21601701F0A1F8D2
:100C20000020A06107202061002010BD70B590F861
:100C30003C20012A2CD0012480F83C40022280F87C
:100C40003D2003685A689D6822F070060A683243A6
:100C50005A60104B02689A420ED00F4B9A420BD04A
:100C6000B2F1804F08D00D4B9A4205D00C4B9A42FE
:100C700002D00C4B9A4204D1496825F080031943F5
:100C8000916080F83D40002180F83C10084670BD1E
:100C9000022070BD002C01400034014000040040DF
:100CA00000080040000C004010B5040003D094F888
:100CB0003D0010B107E0012010BD002084F83C0089
:100CC000204600F01FF8022084F83D00211D206816
:100CD00000F036FE012084F8460084F83E0084F8D7
:100CE0003F0084F8400084F8410084F8420084F812
:100CF000430084F8440084F8450084F83D00002057
:100D000010BD000008B501681648B1F1804F0BD046
:100D1000154A914210D1C16941F00201C161C06917
:100D200000F00200009008BDC16941F00101C161FD
:100D3000C06900F00100F5E70C4A914207D1C16992
:100D400041F00401C161C06900F00400EAE7084A0B
:100D50009142E8D1C16941F00801C161C06900F068
:100D60000800DFE7001002400004004000080040D7
:100D7000000C004070B5044690F83C00012817D0E4
:100D8000012584F83C50022084F83D0020688268E8
:100D900022F0770222F47F4282600868502830D027
:100DA0000DDC20284DD005DC98B310283BD148E05D
:100DB000022070BD302844D0402834D139E060286A
:100DC00028D0702806D0B0F5805F2CD0B0F5005F39
:100DD00029D10AE0CB68D1E90121206800F003FEA7
:100DE0002068816841F0770109E0CB68D1E90121F1
:100DF000206800F0F8FD2068816841F4804181603E
:100E000011E0CA684968206800F0C2FE50212068DD
:100E100007E016E0CA684968206800F0CAFE602151
:100E2000206800F0EAFD84F83D50002084F83C0082
:100E300070BDCA684968206800F0AAFE4021206899
:100E4000EFE7226801461046EBE7000070B586B078
:100E50000021009101910291039100683A49022416
:100E60003A4A3B4E3B4DB0F1804F1CD03A4B984232
:100E700043D1886940F0080088618869694600F0BC
:100E8000080004903320CDE9000410460394FFF7D6
:100E900029FA686820F4406040F0E06040F40060A7
:100EA000686006B070BD886940F008008861886994
:100EB00000F008000490886940F0040088618869A7
:100EC000694600F00400049040F60840CDE90004B3
:100ED00010460394FFF706FA4FF40040CDE90004F2
:100EE000694630460394FFF7FDF9686820F44070C6
:100EF00040F0E06040F44070D2E7184B98420FD1C8
:100F0000886940F0080088618869694600F0080037
:100F100004904FF47070CDE900041046039410E083
:100F20000F4A9042BDD1886940F004008861886909
:100F3000694600F0040004900320CDE90004304627
:100F40000394FFF7CFF9ACE700100240000C01401A
:100F5000000801400000014000040040000800407B
:100F6000000C004070B5044690F83C000D46012886
:100F70000AD0012084F83C0042B1042A18D0082A83
:100F80002AD00C2A4DD139E0022070BD206800F033
:100F90003DFD2068816941F0080181612068816917
:100FA00021F004018161206881692A69114311E0FF
:100FB000206800F05BFD2068816941F40061816177
:100FC0002068816921F480618161206881692A69D2
:100FD00041EA0221816124E0206800F07DFD206863
:100FE000C16941F00801C1612068C16921F00401B3
:100FF000C1612068C1692A69114311E0206800F0CD
:101000009FFD2068C16941F40061C1612068C16928
:1010100021F48061C1612068C1692A6941EA022125
:10102000C161002084F83C0070BD10B5040003D0FD
:1010300094F83D0010B107E0012010BD002084F8B5
:101040003C00204600F01EF8022084F83D00211DDF
:10105000206800F075FC012084F8460084F83E000A
:1010600084F83F0084F8400084F8410084F842008E
:1010700084F8430084F8440084F8450084F83D0077
:10108000002010BD7047000010B50446022249B18F
:1010900004290ED0082913D094F84100012816D055
:1010A000012010BD94F83E000128F9D184F83E20BB
:1010B0000FE094F83F000128F2D184F83F2008E0C7
:1010C00094F840000128EBD184F8402001E084F836
:1010D00041200122206800F079FC13492068134A5E
:1010E000884201D0904203D1436C43F400434364EF
:1010F000206888420DD090420BD0B0F1804F08D0CC
:101100000B49884205D00B49884202D00A498842DF
:1011100004D1816801F00701062903D0016841F07C
:1011200001010160002010BD002C0140003401408D
:101130000004004000080040000C00407047000020
:1011400070B5026804461068D168536910F00F0F3B
:1011500053D003F0010501F490762E435FD0C2070F
:1011600005D0CA0503D5E26B42F00102E2634207F3
:1011700005D5DA0703D0E26B42F00202E263820790
:1011800005D5DA0703D0E26B42F00402E2630207FE
:1011900007D501F020022A4303D0E26B42F0080297
:1011A000E263E26B002A34D0800604D5880602D5BB
:1011B000204600F026FD20684069E16BC0F38010F6
:1011C00001F008010143204624D000F00CFD206806
:1011D000416949061AD5416921F040014161606BBE
:1011E000A0B12D494163606BFEF7E4FF002810D0E9
:1011F000606B416BBDE87040084783060FD58B06D6
:101200000DD52046BDE8704000F0FBBC2046FFF73E
:1012100095FF70BDFFF792FF0020E06370BD0306ED
:101220002BD50B0629D594F839002128F6D1A068D2
:10123000B0F5805F01D12069B0B1206A411C216204
:10124000216800784860E08C401E0004000CE084B7
:10125000E4D12068C16821F08001C1602068C168C4
:1012600041F04001C16070BD206A0088C0F30800F1
:101270005060206A801C2062E5E74006F3D54806EE
:10128000F1D5D168204621F04001D160202184F8B9
:10129000391000F045F970BDD71B000870B586B055
:1012A000002400940194029403942E4E03682E4966
:1012B000022003222D4DB34226D18B6943F4804393
:1012C0008B618B6903F4804304938B6943F00403BF
:1012D0008B618969039201F0040104910102CDE957
:1012E000001069462846FEF7FDFF2815CDE90004E9
:1012F000694628460294FEF7F5FF002201212520C9
:10130000FFF7D2F9252028E0194EB34227D1CB6947
:1013100043F40033CB61CB6903F4003304938B694E
:1013200043F004038B618969039201F00401049185
:101330000421CDE9001069462846FEF7D3FF0820B6
:10134000CDE90004694628460294FEF7CBFF01224E
:1013500011462620FFF7A8F92620FFF798F906B0D6
:1013600070BD00000038014000100240000801403C
:101370000044004090F83A30202B22D1F9B1F2B16C
:1013800090F83830012B1CD081628285C285002103
:10139000C163222280F83A2080F838100168CA68B8
:1013A00042F48072CA6001684A6942F001024A61EF
:1013B0000068C16841F02001C16000207047012031
:1013C000704702207047000070B54E4988427CD1BA
:1013D00001F15E042078A52815D14B4D687858B1ED
:1013E0001D2803D2215CAA781144A970401CC0B208
:1013F00068701E280BD07AE0012068700246611CDC
:101400004048FFF7B7FF3F4901225E3172E0607F3D
:10141000A978884267D16078A17800EB01203B4928
:101420000860E078217900EB01203849091D086047
:101430006079A17900EB0120344908310860E07936
:10144000217A00EB012031490C310860607AA17AE1
:1014500000EB01202E490860E07A217B00EB01209F
:101460002B49091D0860607BA17B00EB0120284906
:1014700008310860E07B217C00EB012024490C311D
:101480000860607CA17C00EB01214FF0804041634B
:10149000E17C227D01EB02218163617DA27D01EB74
:1014A0000221C163E17D227E01EB02210164607EA5
:1014B000A17E00EB012017490860E07E217F00EB50
:1014C00001201449091D086000E01AE012494AF69B
:1014D000AA2008602A7889151048FEF7FFFF2878AF
:1014E00068B10020287000206870A87020706878AB
:1014F00021180122BDE870400248FFF73BBF0120E0
:10150000F0E770BD8001002000000020340400409E
:1015100034080040340C0040003000400008014016
:101520007047FEE770B586B0002418480094019417
:1015300002940394816941F020018161816901F085
:1015400020010491816941F004018161816901F008
:1015500004010491816941F00801816180690C4EA8
:1015600000F008004FF480750490002229463046B0
:10157000FEF7B4FF01200095CDE90104022003909D
:1015800069463046FEF7AEFE06B070BD0010024060
:101590000008014010B58EB0002407940894099407
:1015A0000A940B941C2168460C94FEF7E4FD26482F
:1015B0004FF0804101604721C0E9011444F61F61EA
:1015C000C0E9031480218161FFF76EFB4FF4805066
:1015D000079007A91C48FFF7CDFB1B48FFF725FD27
:1015E0000B940BA918480C94FFF720FB6020CDE961
:1015F000000402940022694613480494FFF7B2FCE9
:10160000042269461048FFF7ADFC082269460E48DF
:10161000FFF7A8FC0C2269460B48FFF7A3FC0A4819
:10162000FFF714FC00210848FFF72EFD04210648AF
:10163000FFF72AFD08210448FFF726FD0C21024888
:10164000FFF722FD0EB010BD2000002010B58EB0B7
:1016500000240794089409940A940B941C2168466A
:101660000C94FEF788FD2848264901604721C0E90F
:10167000011444F61F61C0E9031480218161FFF762
:1016800013FB4FF48050079007A91F48FFF772FB28
:101690001D48FFF7CAFC0B940BA91B480C94FFF7DD
:1016A000C5FA6020009040F2DC50CDE90104002230
:1016B000694615480494FFF755FC04226946124810
:1016C000FFF750FC082269460F48FFF74BFC0C223D
:1016D00069460D48FFF746FC0B48FFF7B7FB0021B2
:1016E0000948FFF7D1FC04210748FFF7CDFC08218A
:1016F0000548FFF7C9FC0C210348FFF7C5FC0EB0F5
:1017000010BD0000000400406800002010B58EB03D
:1017100000240794089409940A940B941C216846A9
:101720000C94FEF728FD2848264901604721C0E9AE
:10173000011444F61F61C0E9031480218161FFF7A1
:10174000B3FA4FF48050079007A91F48FFF712FB28
:101750001D48FFF76AFC0B940BA91B480C94FFF77C
:1017600065FA6020009040F2DC50CDE901040022CF
:10177000694615480494FFF7F5FB042269461248B0
:10178000FFF7F0FB082269460F48FFF7EBFB0C223E
:1017900069460D48FFF7E6FB0B48FFF757FB0021B2
:1017A0000948FFF771FC04210748FFF76DFC082189
:1017B0000548FFF769FC0C210348FFF765FC0EB0F4
:1017C00010BD000000080040B000002010B58EB031
:1017D00000240794089409940A940B941C216846E9
:1017E0000C94FEF7C8FC1E481C4901602321C0E987
:1017F000011441F27671C0E9031480218161FFF781
:1018000053FA4FF48050079007A91548FFF7B2FA32
:101810001348FFF70AFC0B940BA911480C94FFF72F
:1018200005FA6020CDE900040294002269460C48C4
:101830000494FFF797FB042269460948FFF792FBDF
:101840000748FFF703FB00210548FFF71DFC0421B3
:101850000348FFF719FC0EB010BD0000000C00405B
:10186000F80000200D4810B50B4901604FF41651E7
:101870004160002181600C22C160C0E904128161D5
:101880000A46C161FEF7BCFE04491E22BDE81040B5
:1018900080310248FFF76EBD003801404001002052
:1018A0000D4810B50B4901604FF4E1314160002152
:1018B00081600C22C160C0E9041281610A46C161E5
:1018C000FEF79EFE04490122BDE810405E31024849
:1018D000FFF750BD0044004080010020FEE7704744
:1018E00070477047FEF730BE30B58FB0282168468C
:1018F000FEF741FC14210AA8FEF73DFC0920012156
:1019000000904FF48030002404910691CDE9010449
:101910000225CDE907504FF4E01009906846FEF724
:10192000E1FF0F20CDE90A056802CDE90C40022154
:101930000AA80E94FEF7EAFE0FB030BD7047000013
:10194000F0B502681C4B1D4D1D4E1E4F1E4C4FF036
:10195000804C984209D0A04207D0604505D0A842EB
:1019600003D0B04201D0B84204D122F0700E4A68D0
:1019700042EA0E02984209D0A04207D0604505D045
:10198000A84203D0B04201D0B84203D122F440753E
:10199000CA682A434D6922F080022A4302608A689D
:1019A000C2620A688262984201D0A04201D10969EC
:1019B000016301214161F0BD002C014000040040A1
:1019C00000080040000C00400034014010B501F058
:1019D0001F030121046A99408C430462016A9A4002
:1019E0001143016210BD10B5846842EA032224F459
:1019F0007F440A432243826010BD826822F0700255
:101A00000A4342F00701816070470000F0B5026AA6
:101A100022F001020262036A42688469124E24F0D5
:101A200073050C682C4323F002058B682B430D4D86
:101A3000A84201D0B04205D123F00807CB683B4350
:101A400023F00403A84201D0B04205D14D6922F42D
:101A5000407215438A692A43426084614968416340
:101A60000362F0BD002C014000340140F0B5026A71
:101A700022F010020262026A436884690D6824F44D
:101A8000E64444EA05248D6822F0200242EA051269
:101A90000F4D104EA84201D0B04206D1CF6822F0BF
:101AA000800242EA071222F04002A84201D0B0426E
:101AB00007D14D6923F4406343EA85038D6943EA06
:101AC000850343608461496881630262F0BD000060
:101AD000002C014000340140F0B5026A22F480720B
:101AE0000262026A4368C46922F4007224F073053A
:101AF0000C68124E2C438D6842EA05220E4DA84216
:101B000001D0B04206D1CF6822F4006242EA072237
:101B100022F48062A84201D0B04207D14D6923F47B
:101B2000405343EA05138D6943EA05134360C461DA
:101B30004968C1630262F0BD002C014000340140DD
:101B400030B5026A22F480520262046A4268C369B4
:101B50000D6823F4E64343EA05238D6824F400541A
:101B600044EA0534084DA84202D0084DA84204D1E9
:101B70004D6922F4804242EA85124260C36149689D
:101B80000164046230BD0000002C014000340140BB
:101B900010B5036A046A24F001040462846924F025
:101BA000F00444EA021423F00A020A438461026248
:101BB00010BD10B5036A23F0100303628369046A41
:101BC00023F4704343EA023224F0A00343EA0111F4
:101BD0008261016210BD10B5406A0021C185C184D7
:101BE000FFF7ACFA10BD0168CA6822F49072CA60AF
:101BF00001684A6922F001024A61202180F83A1006
:101C0000704710B590F83A10222901D0022010BD7B
:101C100082684FF480539A4201D1016921B1816AEF
:101C20009A421BD04AB10AE00268816A5268C2F344
:101C300008020A80816A891C08E0026972B10268A0
:101C4000526802F07F020A70816A491C8162C18D6C
:101C5000491E0904090CC18503D016E002685268C8
:101C6000F1E70168CA6822F02002CA600168CA6808
:101C700022F48072CA6001684A6922F001024A6156
:101C8000202180F83A10FFF79FFB002010BD0000D4
:101C900070B5044600680169E26821F440511143BF
:101CA00001612169A0680843616908432168CA6825
:101CB00041F20C639A430243CA6020684169A269F9
:101CC00021F44071114341611E492068884202D1CC
:101CD000FEF7C2FD01E0FEF7AFFD00EBC00101EB36
:101CE0000012606864218000B2FBF0F3B3FBF1F3F3
:101CF0006FF018067343B2FBF0F5B2FBF0F605EB9C
:101D00008305322303EB0515B5FBF1F5B6FBF1F6C0
:101D100005F0F00505EB0615B2FBF0F6B2FBF0F0AE
:101D2000B0FBF1F06FF01802504306EB800003EBBC
:101D30000010B0FBF1F0216800F00F00284488602B
:101D400070BD0000003801400148FFF7F9B90000FC
:101D5000400100200148FFF7F3B900008001002096
:101D6000FEE70907090E002804DB00F1E02080F8F7
:101D70000014704700F00F0000F1E02080F8141DFF
:101D8000704702E008C8121F08C1002AFAD1704744
:101D90007047002001E001C1121F002AFBD17047EB
:101DA000FEF7DAFBFFF7A0FD10480F4C0221C0E957
:101DB000004140F271218160FEF79CFB4AF6AA20A7
:101DC00020604CF6CC402060FFF7ACFBFFF7E2FB55
:101DD000FFF73CFCFFF79AFCFFF7F8FCFFF742FD2A
:101DE000FFF75EFDFEE70000003000401400002019
:101DF00000000000000000000102030406070809BB
:101E00000000000001020304281E0008000000205A
:101E100014000000821D00083C1E00081400002071
:101E2000EC050000921D0008000000000100000009
:0C1E300010000000000000000024F4007E
:0400000508000131BD
:00000001FF
